{
  "transactions": [
    {
      "hash": "0xebec0e3b35c8c87aa5a61ae1b13e3b062f51f7ea3729b8c1b2dff147ec50e200",
      "transactionType": "CALL",
      "contractName": null,
      "contractAddress": "0xa87801b951682e96edfc5409a4628a534bc91597",
      "function": "mintW3Pass(uint256,bytes32[],bytes)",
      "arguments": [
        "3",
        "[0x0fc848d505c80488eb6c0ff72af5476b293a59b05b1f1e15459325653158c2ad]",
        "0x8c06b21d60440befa764a9c77da6bfacb0fbf4a64fff6a42ae686580cebcafd8692c1d0dc21c471fadb7345056d78f9ab817c0e6d4e288d083ff4e41a140ba311b"
      ],
      "transaction": {
        "from": "0xdef8de1110a2038fa9ff863c3ec471847315fae8",
        "to": "0xa87801b951682e96edfc5409a4628a534bc91597",
        "gas": "0x2e313",
        "value": "0x0",
        "input": "0xdd9658cd0000000000000000000000000000000000000000000000000000000000000003000000000000000000000000000000000000000000000000000000000000006000000000000000000000000000000000000000000000000000000000000000a000000000000000000000000000000000000000000000000000000000000000010fc848d505c80488eb6c0ff72af5476b293a59b05b1f1e15459325653158c2ad00000000000000000000000000000000000000000000000000000000000000418c06b21d60440befa764a9c77da6bfacb0fbf4a64fff6a42ae686580cebcafd8692c1d0dc21c471fadb7345056d78f9ab817c0e6d4e288d083ff4e41a140ba311b00000000000000000000000000000000000000000000000000000000000000",
        "nonce": "0x1c1",
        "chainId": "0x14a34"
      },
      "additionalContracts": [],
      "isFixedGasLimit": false
    }
  ],
  "receipts": [
    {
      "status": "0x1",
      "cumulativeGasUsed": "0x1c5ae3",
      "logs": [
        {
          "address": "0x2e1e1de76d960b3c34c5317a44f4430963386a7c",
          "topics": [
            "0xddf252ad1be2c89b69c2b068fc378daa952ba7f163c4a11628f55a4df523b3ef",
            "0x0000000000000000000000000000000000000000000000000000000000000000",
            "0x000000000000000000000000def8de1110a2038fa9ff863c3ec471847315fae8",
            "0x0000000000000000000000000000000000000000000000000000000000000000"
          ],
          "data": "0x",
          "blockHash": "0xf4b48608bee245edaef62d4a61a5f0264e7400a463ae8c8af7edb1331e48fed6",
          "blockNumber": "0x1b2b0d9",
          "blockTimestamp": "0x6878c092",
          "transactionHash": "0xebec0e3b35c8c87aa5a61ae1b13e3b062f51f7ea3729b8c1b2dff147ec50e200",
          "transactionIndex": "0x8",
          "logIndex": "0xc",
          "removed": false
        },
        {
          "address": "0x2e1e1de76d960b3c34c5317a44f4430963386a7c",
          "topics": [
            "0x973726257f937669c7969e71f1965ec84e684e39bd3343887ebda21951223c97",
            "0x000000000000000000000000def8de1110a2038fa9ff863c3ec471847315fae8",
            "0x0000000000000000000000000000000000000000000000000000000000000000"
          ],
          "data": "0x0000000000000000000000000000000000000000000000000000000000000000",
          "blockHash": "0xf4b48608bee245edaef62d4a61a5f0264e7400a463ae8c8af7edb1331e48fed6",
          "blockNumber": "0x1b2b0d9",
          "blockTimestamp": "0x6878c092",
          "transactionHash": "0xebec0e3b35c8c87aa5a61ae1b13e3b062f51f7ea3729b8c1b2dff147ec50e200",
          "transactionIndex": "0x8",
          "logIndex": "0xd",
          "removed": false
        },
        {
          "address": "0xa87801b951682e96edfc5409a4628a534bc91597",
          "topics": [
            "0xbc24e9a943218d17067a1351f8078c6bc6926f656863f34b1abff1e9503c121b",
            "0x000000000000000000000000def8de1110a2038fa9ff863c3ec471847315fae8"
          ],
          "data": "0x",
          "blockHash": "0xf4b48608bee245edaef62d4a61a5f0264e7400a463ae8c8af7edb1331e48fed6",
          "blockNumber": "0x1b2b0d9",
          "blockTimestamp": "0x6878c092",
          "transactionHash": "0xebec0e3b35c8c87aa5a61ae1b13e3b062f51f7ea3729b8c1b2dff147ec50e200",
          "transactionIndex": "0x8",
          "logIndex": "0xe",
          "removed": false
        }
      ],
      "logsBloom": "0x00000000000400100000000000020000000100000000000000000010000000000000000000000000000000100000000000000000000000000000000000000010000000000000000000000008000000000000000008000000000000000008000000000000020040000000040002000800000000000000000000000010000000000000000000000000000000000000000000004000000000000000000000000000000000000000000000000000000000000000000000000000000000000000000000000002000000000000000000000000000000000000040000000000000020000000000000000000000000000000000000000000000000000000000000800000",
      "type": "0x2",
      "transactionHash": "0xebec0e3b35c8c87aa5a61ae1b13e3b062f51f7ea3729b8c1b2dff147ec50e200",
      "transactionIndex": "0x8",
      "blockHash": "0xf4b48608bee245edaef62d4a61a5f0264e7400a463ae8c8af7edb1331e48fed6",
      "blockNumber": "0x1b2b0d9",
      "gasUsed": "0x21714",
      "effectiveGasPrice": "0xaeaa0",
      "from": "0xdef8de1110a2038fa9ff863c3ec471847315fae8",
      "to": "0xa87801b951682e96edfc5409a4628a534bc91597",
      "contractAddress": null,
      "l1BaseFeeScalar": "0x44d",
      "l1BlobBaseFee": "0x1",
      "l1BlobBaseFeeScalar": "0xa118b",
      "l1Fee": "0x2f99c9",
      "l1GasPrice": "0xf3ae7",
      "l1GasUsed": "0xb16"
    }
  ],
  "libraries": [],
  "pending": [],
  "returns": {},
  "timestamp": 1752744080,
  "chain": 84532,
  "commit": "900afe1"
}