{
  "transactions": [
    {
      "hash": "0x19f0990d11495e44ef719c58a34604bad4bb5f3c07aee90963aee97d049ffbad",
      "transactionType": "CALL",
      "contractName": null,
      "contractAddress": "0xb784fd775d0612e889e0da7931fd84c645a40f82",
      "function": "mintW3Pass(uint256,bytes32[],bytes)",
      "arguments": [
        "3",
        "[0xe0410ebda579fb9402b4bc3f43a6207e89dfb173f919ab55b2c6b01a97c56a92, 0xc848468b4d4d3d01334c80eb98dbf21812a4111f644f18b253587afe1be94d4b, 0xfd1c19c4b718dd9873717f42cffad3ccdac6037902d72226879075d4805f35f4]",
        "0x19f6c8acd5abcb4e5ed977b522383681baed5aa75c46726969f9fd46d05c8e0163c5e027693a206f2cea5865beaba646cccb828ea25a8992cec0ab3c8544adaa1b"
      ],
      "transaction": {
        "from": "0x2c8c74c992ad8cbe2b657d718295ef1733fd2788",
        "to": "0xb784fd775d0612e889e0da7931fd84c645a40f82",
        "gas": "0x2eb89",
        "value": "0x0",
        "input": "0xdd9658cd0000000000000000000000000000000000000000000000000000000000000003000000000000000000000000000000000000000000000000000000000000006000000000000000000000000000000000000000000000000000000000000000e00000000000000000000000000000000000000000000000000000000000000003e0410ebda579fb9402b4bc3f43a6207e89dfb173f919ab55b2c6b01a97c56a92c848468b4d4d3d01334c80eb98dbf21812a4111f644f18b253587afe1be94d4bfd1c19c4b718dd9873717f42cffad3ccdac6037902d72226879075d4805f35f4000000000000000000000000000000000000000000000000000000000000004119f6c8acd5abcb4e5ed977b522383681baed5aa75c46726969f9fd46d05c8e0163c5e027693a206f2cea5865beaba646cccb828ea25a8992cec0ab3c8544adaa1b00000000000000000000000000000000000000000000000000000000000000",
        "nonce": "0x4c",
        "chainId": "0x14a34"
      },
      "additionalContracts": [],
      "isFixedGasLimit": false
    }
  ],
  "receipts": [
    {
      "status": "0x1",
      "cumulativeGasUsed": "0x4d8947",
      "logs": [
        {
          "address": "0xa7231cd5b221ef74079c5c4260339d6e5d16d8ae",
          "topics": [
            "0xddf252ad1be2c89b69c2b068fc378daa952ba7f163c4a11628f55a4df523b3ef",
            "0x0000000000000000000000000000000000000000000000000000000000000000",
            "0x0000000000000000000000002c8c74c992ad8cbe2b657d718295ef1733fd2788",
            "0x0000000000000000000000000000000000000000000000000000000000000000"
          ],
          "data": "0x",
          "blockHash": "0x78b99a4914d26d62212bf27e40100f7693103fc8bbb8616959a52c7664c8963a",
          "blockNumber": "0x1bf8177",
          "blockTimestamp": "0x689261ce",
          "transactionHash": "0x19f0990d11495e44ef719c58a34604bad4bb5f3c07aee90963aee97d049ffbad",
          "transactionIndex": "0xf",
          "logIndex": "0x8f",
          "removed": false
        },
        {
          "address": "0xa7231cd5b221ef74079c5c4260339d6e5d16d8ae",
          "topics": [
            "0x973726257f937669c7969e71f1965ec84e684e39bd3343887ebda21951223c97",
            "0x0000000000000000000000002c8c74c992ad8cbe2b657d718295ef1733fd2788",
            "0x0000000000000000000000000000000000000000000000000000000000000000"
          ],
          "data": "0x0000000000000000000000000000000000000000000000000000000000000000",
          "blockHash": "0x78b99a4914d26d62212bf27e40100f7693103fc8bbb8616959a52c7664c8963a",
          "blockNumber": "0x1bf8177",
          "blockTimestamp": "0x689261ce",
          "transactionHash": "0x19f0990d11495e44ef719c58a34604bad4bb5f3c07aee90963aee97d049ffbad",
          "transactionIndex": "0xf",
          "logIndex": "0x90",
          "removed": false
        },
        {
          "address": "0xb784fd775d0612e889e0da7931fd84c645a40f82",
          "topics": [
            "0xbc24e9a943218d17067a1351f8078c6bc6926f656863f34b1abff1e9503c121b",
            "0x0000000000000000000000002c8c74c992ad8cbe2b657d718295ef1733fd2788"
          ],
          "data": "0x",
          "blockHash": "0x78b99a4914d26d62212bf27e40100f7693103fc8bbb8616959a52c7664c8963a",
          "blockNumber": "0x1bf8177",
          "blockTimestamp": "0x689261ce",
          "transactionHash": "0x19f0990d11495e44ef719c58a34604bad4bb5f3c07aee90963aee97d049ffbad",
          "transactionIndex": "0xf",
          "logIndex": "0x91",
          "removed": false
        }
      ],
      "logsBloom": "0x00000000000000100000000000000000020000000000000000000000000000000000000000000000000000000000000000000000000000000000000000000000000000000000000000000008000000000000000008000000000000000000000000000000020000800000040002000800000000000000000000000090000000000000000000000000000000000000000000004000000000000000000080000000000000000000000200000000000000000000000000000000000000000000000008000042000000000000000000000020000000000000040000000000000020000000000000000000000000000000000000000000000000000000000000000000",
      "type": "0x2",
      "transactionHash": "0x19f0990d11495e44ef719c58a34604bad4bb5f3c07aee90963aee97d049ffbad",
      "transactionIndex": "0xf",
      "blockHash": "0x78b99a4914d26d62212bf27e40100f7693103fc8bbb8616959a52c7664c8963a",
      "blockNumber": "0x1bf8177",
      "gasUsed": "0x21d34",
      "effectiveGasPrice": "0xf4279",
      "from": "0x2c8c74c992ad8cbe2b657d718295ef1733fd2788",
      "to": "0xb784fd775d0612e889e0da7931fd84c645a40f82",
      "contractAddress": null,
      "l1BaseFeeScalar": "0x44d",
      "l1BlobBaseFee": "0x2",
      "l1BlobBaseFeeScalar": "0xa118b",
      "l1Fee": "0x7d685c2",
      "l1GasPrice": "0x1ed31b6",
      "l1GasUsed": "0xe6f"
    }
  ],
  "libraries": [],
  "pending": [],
  "returns": {},
  "timestamp": 1754423757501,
  "chain": 84532,
  "commit": "5203366"
}