{
  "transactions": [
    {
      "hash": "0xff4b7afd8b492922cf52dbac86b63334d8e04a2c2f95dfa2b24129ce0c7255d4",
      "transactionType": "CALL",
      "contractName": null,
      "contractAddress": "0x3d87740163cd456bfc925f5a25195889897e9817",
      "function": "mintW3Pass(uint256,bytes32[],bytes)",
      "arguments": [
        "3",
        "[0x0fc848d505c80488eb6c0ff72af5476b293a59b05b1f1e15459325653158c2ad]",
        "0x8c06b21d60440befa764a9c77da6bfacb0fbf4a64fff6a42ae686580cebcafd8692c1d0dc21c471fadb7345056d78f9ab817c0e6d4e288d083ff4e41a140ba311b"
      ],
      "transaction": {
        "from": "0xdef8de1110a2038fa9ff863c3ec471847315fae8",
        "to": "0x3d87740163cd456bfc925f5a25195889897e9817",
        "gas": "0x2e313",
        "value": "0x0",
        "input": "0xdd9658cd0000000000000000000000000000000000000000000000000000000000000003000000000000000000000000000000000000000000000000000000000000006000000000000000000000000000000000000000000000000000000000000000a000000000000000000000000000000000000000000000000000000000000000010fc848d505c80488eb6c0ff72af5476b293a59b05b1f1e15459325653158c2ad00000000000000000000000000000000000000000000000000000000000000418c06b21d60440befa764a9c77da6bfacb0fbf4a64fff6a42ae686580cebcafd8692c1d0dc21c471fadb7345056d78f9ab817c0e6d4e288d083ff4e41a140ba311b00000000000000000000000000000000000000000000000000000000000000",
        "nonce": "0x1d0",
        "chainId": "0x14a34"
      },
      "additionalContracts": [],
      "isFixedGasLimit": false
    }
  ],
  "receipts": [
    {
      "status": "0x1",
      "cumulativeGasUsed": "0x2dbda8",
      "logs": [
        {
          "address": "0xd3aaf6415f50efa4a7e4cee8482592d421a07631",
          "topics": [
            "0xddf252ad1be2c89b69c2b068fc378daa952ba7f163c4a11628f55a4df523b3ef",
            "0x0000000000000000000000000000000000000000000000000000000000000000",
            "0x000000000000000000000000def8de1110a2038fa9ff863c3ec471847315fae8",
            "0x0000000000000000000000000000000000000000000000000000000000000000"
          ],
          "data": "0x",
          "blockHash": "0xe0a44ca56cfbc4f31560d853010753b35780f1e99bd5c98ef19098780131757a",
          "blockNumber": "0x1b2d39a",
          "transactionHash": "0xff4b7afd8b492922cf52dbac86b63334d8e04a2c2f95dfa2b24129ce0c7255d4",
          "transactionIndex": "0x12",
          "logIndex": "0x69",
          "removed": false
        },
        {
          "address": "0xd3aaf6415f50efa4a7e4cee8482592d421a07631",
          "topics": [
            "0x973726257f937669c7969e71f1965ec84e684e39bd3343887ebda21951223c97",
            "0x000000000000000000000000def8de1110a2038fa9ff863c3ec471847315fae8",
            "0x0000000000000000000000000000000000000000000000000000000000000000"
          ],
          "data": "0x0000000000000000000000000000000000000000000000000000000000000000",
          "blockHash": "0xe0a44ca56cfbc4f31560d853010753b35780f1e99bd5c98ef19098780131757a",
          "blockNumber": "0x1b2d39a",
          "transactionHash": "0xff4b7afd8b492922cf52dbac86b63334d8e04a2c2f95dfa2b24129ce0c7255d4",
          "transactionIndex": "0x12",
          "logIndex": "0x6a",
          "removed": false
        },
        {
          "address": "0x3d87740163cd456bfc925f5a25195889897e9817",
          "topics": [
            "0xbc24e9a943218d17067a1351f8078c6bc6926f656863f34b1abff1e9503c121b",
            "0x000000000000000000000000def8de1110a2038fa9ff863c3ec471847315fae8"
          ],
          "data": "0x",
          "blockHash": "0xe0a44ca56cfbc4f31560d853010753b35780f1e99bd5c98ef19098780131757a",
          "blockNumber": "0x1b2d39a",
          "transactionHash": "0xff4b7afd8b492922cf52dbac86b63334d8e04a2c2f95dfa2b24129ce0c7255d4",
          "transactionIndex": "0x12",
          "logIndex": "0x6b",
          "removed": false
        }
      ],
      "logsBloom": "0x00000000000400100000000000000000000000000000000000000000000000000000000000000000000000000000000000000000000000000000000000000010000000000000000000000008000000000000000008000000000000000000000000000000020000000000040002000800000000000000001000000010000000080000008000000000000000000000020000004000000000002000000000000000000000000000000000000000000000000000000000000000000000000000000000000002000000000000000000000000000000000000040000000000000020000000000000000000000000000000000000000000000000040000000000800000",
      "type": "0x2",
      "transactionHash": "0xff4b7afd8b492922cf52dbac86b63334d8e04a2c2f95dfa2b24129ce0c7255d4",
      "transactionIndex": "0x12",
      "blockHash": "0xe0a44ca56cfbc4f31560d853010753b35780f1e99bd5c98ef19098780131757a",
      "blockNumber": "0x1b2d39a",
      "gasUsed": "0x21714",
      "effectiveGasPrice": "0xf427a",
      "from": "0xdef8de1110a2038fa9ff863c3ec471847315fae8",
      "to": "0x3d87740163cd456bfc925f5a25195889897e9817",
      "contractAddress": null,
      "l1BaseFeeScalar": "0x44d",
      "l1BlobBaseFee": "0x1",
      "l1BlobBaseFeeScalar": "0xa118b",
      "l1Fee": "0x39c625",
      "l1GasPrice": "0x127c36",
      "l1GasUsed": "0xb16"
    }
  ],
  "libraries": [],
  "pending": [],
  "returns": {},
  "timestamp": 1752761876,
  "chain": 84532,
  "commit": "f0c63ec"
}