{
  "transactions": [
    {
      "hash": "0x492bf491e53e14999c47d41331afb404ec722932bfc5c5189e327b7c65357656",
      "transactionType": "CALL",
      "contractName": null,
      "contractAddress": "0xa87801b951682e96edfc5409a4628a534bc91597",
      "function": "mintW3Pass(uint256,bytes32[],bytes)",
      "arguments": [
        "0",
        "[]",
        "0x35800f73f0f4d721ddb49a383a634b4737e26389e21c0cc0a0eef62ff0ca585559fd0a01bb24e03ecb09e404e371c1aec70645c29f8ca2cb1ac9173a662cf07d1c"
      ],
      "transaction": {
        "from": "0xc3eba45d87b153b6cf39461fc199ffeedaf558bf",
        "to": "0xa87801b951682e96edfc5409a4628a534bc91597",
        "gas": "0x32b56",
        "value": "0x38d7ea4c68000",
        "input": "0xdd9658cd0000000000000000000000000000000000000000000000000000000000000000000000000000000000000000000000000000000000000000000000000000006000000000000000000000000000000000000000000000000000000000000000800000000000000000000000000000000000000000000000000000000000000000000000000000000000000000000000000000000000000000000000000000004135800f73f0f4d721ddb49a383a634b4737e26389e21c0cc0a0eef62ff0ca585559fd0a01bb24e03ecb09e404e371c1aec70645c29f8ca2cb1ac9173a662cf07d1c00000000000000000000000000000000000000000000000000000000000000",
        "nonce": "0x9",
        "chainId": "0x14a34"
      },
      "additionalContracts": [],
      "isFixedGasLimit": false
    }
  ],
  "receipts": [
    {
      "status": "0x1",
      "cumulativeGasUsed": "0x8d65cc",
      "logs": [
        {
          "address": "0xf5cb6ae777ac54ad5dd630927af21cac3eb5593d",
          "topics": [
            "0xddf252ad1be2c89b69c2b068fc378daa952ba7f163c4a11628f55a4df523b3ef",
            "0x0000000000000000000000000000000000000000000000000000000000000000",
            "0x000000000000000000000000c3eba45d87b153b6cf39461fc199ffeedaf558bf",
            "0x0000000000000000000000000000000000000000000000000000000000000000"
          ],
          "data": "0x",
          "blockHash": "0xa6a34013ae4b761b1ff596e0aeacbab4add751c41a39ede5f8c6c807b742db37",
          "blockNumber": "0x1b2adec",
          "transactionHash": "0x492bf491e53e14999c47d41331afb404ec722932bfc5c5189e327b7c65357656",
          "transactionIndex": "0x15",
          "logIndex": "0xc3",
          "removed": false
        },
        {
          "address": "0xf5cb6ae777ac54ad5dd630927af21cac3eb5593d",
          "topics": [
            "0x973726257f937669c7969e71f1965ec84e684e39bd3343887ebda21951223c97",
            "0x000000000000000000000000c3eba45d87b153b6cf39461fc199ffeedaf558bf",
            "0x0000000000000000000000000000000000000000000000000000000000000000"
          ],
          "data": "0x00000000000000000000000000000000000000000000000000038d7ea4c68000",
          "blockHash": "0xa6a34013ae4b761b1ff596e0aeacbab4add751c41a39ede5f8c6c807b742db37",
          "blockNumber": "0x1b2adec",
          "transactionHash": "0x492bf491e53e14999c47d41331afb404ec722932bfc5c5189e327b7c65357656",
          "transactionIndex": "0x15",
          "logIndex": "0xc4",
          "removed": false
        },
        {
          "address": "0xa87801b951682e96edfc5409a4628a534bc91597",
          "topics": [
            "0xbc24e9a943218d17067a1351f8078c6bc6926f656863f34b1abff1e9503c121b",
            "0x000000000000000000000000c3eba45d87b153b6cf39461fc199ffeedaf558bf"
          ],
          "data": "0x",
          "blockHash": "0xa6a34013ae4b761b1ff596e0aeacbab4add751c41a39ede5f8c6c807b742db37",
          "blockNumber": "0x1b2adec",
          "transactionHash": "0x492bf491e53e14999c47d41331afb404ec722932bfc5c5189e327b7c65357656",
          "transactionIndex": "0x15",
          "logIndex": "0xc5",
          "removed": false
        }
      ],
      "logsBloom": "0x00000000000000100000000000000000000100000000000000000010000000000000000000000000000000000000000000000000000000000000000000000000000000000000000000000008000000000000000008000000000000000008000000000000020000000000040002100800000000000000000000000010000000000000000000000000000000000000000000004000000000000000000000000000000000000020000000000000000000000000000100000000000001000000000000000002000000000000000000000000000000000000240000000000000020000000000000000000000004000000000000000000000000000000000000000000",
      "type": "0x2",
      "transactionHash": "0x492bf491e53e14999c47d41331afb404ec722932bfc5c5189e327b7c65357656",
      "transactionIndex": "0x15",
      "blockHash": "0xa6a34013ae4b761b1ff596e0aeacbab4add751c41a39ede5f8c6c807b742db37",
      "blockNumber": "0x1b2adec",
      "gasUsed": "0x22ac3",
      "effectiveGasPrice": "0xe5bce",
      "from": "0xc3eba45d87b153b6cf39461fc199ffeedaf558bf",
      "to": "0xa87801b951682e96edfc5409a4628a534bc91597",
      "contractAddress": null,
      "l1BaseFeeScalar": "0x44d",
      "l1BlobBaseFee": "0x1",
      "l1BlobBaseFeeScalar": "0xa118b",
      "l1Fee": "0x25f6fb",
      "l1GasPrice": "0xf53a0",
      "l1GasUsed": "0x8c9"
    }
  ],
  "libraries": [],
  "pending": [],
  "returns": {},
  "timestamp": 1752742583,
  "chain": 84532,
  "commit": "900afe1"
}