{
  "transactions": [
    {
      "hash": "0xaeb08abc9a2879f55ad0d98b277f2b2a7fdef316e94300dd81cf1c3a6c65d4fd",
      "transactionType": "CALL",
      "contractName": null,
      "contractAddress": "0xf56c7c1461c5c423192affa92d10b5637d92aaeb",
      "function": "mintW3Pass(uint256,bytes32[],bytes)",
      "arguments": [
        "3",
        "[0x6122e8fc24eb440db58a2a137431c6fe26850bb8e16ea82daf6dba59167fa4e6, 0xbf0ee62e6749a4479d285a3b34698c3976087420e29afc854967c4f7ca18a4fb, 0xcb36d995d104144b0156dc3c141cc984c065a167944951c2a8c6d76be69efe44, 0x6f88ef0021833dd74d8287b671a23d5e32cc5220469a7bd49d7cc085827ca4b7, 0x81a89b8d98b7dabb95f8adf7cd2882e36d870caf455a116566553d5911d7efc2, 0x58b3e92f91c6ea47609b9c4cfc6513c242ef51edba110c21bb2fb0a9fc8ec6cf, 0x286fe256082518a0d74428ae274adc9905f1c3535ead60b0996e32ab814bd686, 0x8922238ad579d8514dbb8273098c260b8bec502b7b34b69d60d20f8b5e151505, 0xbd8a79c2fe141f22f3520d4674531b08a1442a3287d9b082f6d811cc3a31ab01, 0x3ab9b504baa24acf54deb1b6602219d8d9070d818de4f3cc27cc10da995ae21e, 0x5b8630f6e3a8503a74b645db04afc60a1f55230e7fd92f43811d8c4b4ab6ef61, 0xdb82eb652bd02e734870e37a48edd04f5e2236089fe536f50ff4e93ef81d3206, 0x5999fcfbbe5cdf401ded7566559e961e4277f179f6e0388e737ebc413ce8d849, 0x7befa581992fda276bc8faeb38379482838a8543753287d355c8a8c1a4ba81f3]",
        "0x8c06b21d60440befa764a9c77da6bfacb0fbf4a64fff6a42ae686580cebcafd8692c1d0dc21c471fadb7345056d78f9ab817c0e6d4e288d083ff4e41a140ba311b"
      ],
      "transaction": {
        "from": "0xdef8de1110a2038fa9ff863c3ec471847315fae8",
        "to": "0xf56c7c1461c5c423192affa92d10b5637d92aaeb",
        "gas": "0x31935",
        "value": "0x0",
        "input": "0xdd9658cd000000000000000000000000000000000000000000000000000000000000000300000000000000000000000000000000000000000000000000000000000000600000000000000000000000000000000000000000000000000000000000000240000000000000000000000000000000000000000000000000000000000000000e6122e8fc24eb440db58a2a137431c6fe26850bb8e16ea82daf6dba59167fa4e6bf0ee62e6749a4479d285a3b34698c3976087420e29afc854967c4f7ca18a4fbcb36d995d104144b0156dc3c141cc984c065a167944951c2a8c6d76be69efe446f88ef0021833dd74d8287b671a23d5e32cc5220469a7bd49d7cc085827ca4b781a89b8d98b7dabb95f8adf7cd2882e36d870caf455a116566553d5911d7efc258b3e92f91c6ea47609b9c4cfc6513c242ef51edba110c21bb2fb0a9fc8ec6cf286fe256082518a0d74428ae274adc9905f1c3535ead60b0996e32ab814bd6868922238ad579d8514dbb8273098c260b8bec502b7b34b69d60d20f8b5e151505bd8a79c2fe141f22f3520d4674531b08a1442a3287d9b082f6d811cc3a31ab013ab9b504baa24acf54deb1b6602219d8d9070d818de4f3cc27cc10da995ae21e5b8630f6e3a8503a74b645db04afc60a1f55230e7fd92f43811d8c4b4ab6ef61db82eb652bd02e734870e37a48edd04f5e2236089fe536f50ff4e93ef81d32065999fcfbbe5cdf401ded7566559e961e4277f179f6e0388e737ebc413ce8d8497befa581992fda276bc8faeb38379482838a8543753287d355c8a8c1a4ba81f300000000000000000000000000000000000000000000000000000000000000418c06b21d60440befa764a9c77da6bfacb0fbf4a64fff6a42ae686580cebcafd8692c1d0dc21c471fadb7345056d78f9ab817c0e6d4e288d083ff4e41a140ba311b00000000000000000000000000000000000000000000000000000000000000",
        "nonce": "0x131",
        "chainId": "0x2105"
      },
      "additionalContracts": [],
      "isFixedGasLimit": false
    }
  ],
  "receipts": [
    {
      "status": "0x1",
      "cumulativeGasUsed": "0x175ba54",
      "logs": [
        {
          "address": "0x29111eb7f15091ab82e3ddf8f8b34b2eeb07a17d",
          "topics": [
            "0xddf252ad1be2c89b69c2b068fc378daa952ba7f163c4a11628f55a4df523b3ef",
            "0x0000000000000000000000000000000000000000000000000000000000000000",
            "0x000000000000000000000000def8de1110a2038fa9ff863c3ec471847315fae8",
            "0x0000000000000000000000000000000000000000000000000000000000000000"
          ],
          "data": "0x",
          "blockHash": "0x47ef63c2597d00f2d9dcb40db74290e8dfe3cb353be09fecdf7b79722a9df679",
          "blockNumber": "0x20567a6",
          "blockTimestamp": "0x68952c2f",
          "transactionHash": "0xaeb08abc9a2879f55ad0d98b277f2b2a7fdef316e94300dd81cf1c3a6c65d4fd",
          "transactionIndex": "0x72",
          "logIndex": "0x337",
          "removed": false
        },
        {
          "address": "0x29111eb7f15091ab82e3ddf8f8b34b2eeb07a17d",
          "topics": [
            "0x973726257f937669c7969e71f1965ec84e684e39bd3343887ebda21951223c97",
            "0x000000000000000000000000def8de1110a2038fa9ff863c3ec471847315fae8",
            "0x0000000000000000000000000000000000000000000000000000000000000000"
          ],
          "data": "0x0000000000000000000000000000000000000000000000000000000000000000",
          "blockHash": "0x47ef63c2597d00f2d9dcb40db74290e8dfe3cb353be09fecdf7b79722a9df679",
          "blockNumber": "0x20567a6",
          "blockTimestamp": "0x68952c2f",
          "transactionHash": "0xaeb08abc9a2879f55ad0d98b277f2b2a7fdef316e94300dd81cf1c3a6c65d4fd",
          "transactionIndex": "0x72",
          "logIndex": "0x338",
          "removed": false
        },
        {
          "address": "0xf56c7c1461c5c423192affa92d10b5637d92aaeb",
          "topics": [
            "0xbc24e9a943218d17067a1351f8078c6bc6926f656863f34b1abff1e9503c121b",
            "0x000000000000000000000000def8de1110a2038fa9ff863c3ec471847315fae8"
          ],
          "data": "0x",
          "blockHash": "0x47ef63c2597d00f2d9dcb40db74290e8dfe3cb353be09fecdf7b79722a9df679",
          "blockNumber": "0x20567a6",
          "blockTimestamp": "0x68952c2f",
          "transactionHash": "0xaeb08abc9a2879f55ad0d98b277f2b2a7fdef316e94300dd81cf1c3a6c65d4fd",
          "transactionIndex": "0x72",
          "logIndex": "0x339",
          "removed": false
        }
      ],
      "logsBloom": "0x00000000000400100000000002000000000000000000000000000000000000000000000000000000000000000000000000000000000000000000000000000010000000000000000000000008000000000000000008000000000000000000080000000000022000000000040002000800000000000000000000000012000000000000000000000000000000000000000000004000000000000000000000000000000000000000000000000000000000000000000000000000000000000020002000000002000000000000000000000000000000000000040000000000000020000000000000000000000000000000000000000000000000000000000000800000",
      "type": "0x2",
      "transactionHash": "0xaeb08abc9a2879f55ad0d98b277f2b2a7fdef316e94300dd81cf1c3a6c65d4fd",
      "transactionIndex": "0x72",
      "blockHash": "0x47ef63c2597d00f2d9dcb40db74290e8dfe3cb353be09fecdf7b79722a9df679",
      "blockNumber": "0x20567a6",
      "gasUsed": "0x23e45",
      "effectiveGasPrice": "0x4de0ac",
      "from": "0xdef8de1110a2038fa9ff863c3ec471847315fae8",
      "to": "0xf56c7c1461c5c423192affa92d10b5637d92aaeb",
      "contractAddress": null,
      "l1BaseFeeScalar": "0x8dd",
      "l1BlobBaseFee": "0x1",
      "l1BlobBaseFeeScalar": "0x101c12",
      "l1Fee": "0x1c103b581",
      "l1GasPrice": "0x17196a1d",
      "l1GasUsed": "0x2176"
    }
  ],
  "libraries": [],
  "pending": [],
  "returns": {},
  "timestamp": 1754606638045,
  "chain": 8453,
  "commit": "072e122"
}