{
  "transactions": [
    {
      "hash": "0xd896822ed42a744815c720b00b492a21feec9638756b57cd75b0de5da914a6d5",
      "transactionType": "CALL",
      "contractName": null,
      "contractAddress": "0x3d87740163cd456bfc925f5a25195889897e9817",
      "function": "setGenerationModelFee(uint256)",
      "arguments": [
        "10000000000000"
      ],
      "transaction": {
        "from": "0x865aecef8a981f2dc860ee1074119d8821518db3",
        "to": "0x3d87740163cd456bfc925f5a25195889897e9817",
        "gas": "0xfe7a",
        "value": "0x0",
        "input": "0x2db66702000000000000000000000000000000000000000000000000000009184e72a000",
        "nonce": "0x3c",
        "chainId": "0x14a34"
      },
      "additionalContracts": [],
      "isFixedGasLimit": false
    }
  ],
  "receipts": [
    {
      "status": "0x1",
      "cumulativeGasUsed": "0x9ecc2",
      "logs": [
        {
          "address": "0x3d87740163cd456bfc925f5a25195889897e9817",
          "topics": [
            "0x3972fb1b29f59e58b2e9bfb8b2d97bad7ef1919957fb4bf701addb81d84e1025",
            "0x000000000000000000000000000000000000000000000000000009184e72a000"
          ],
          "data": "0x",
          "blockHash": "0x2fb5b0974f66bf7771b16f6557ed31861fb045bfc39158f61b1ec47863f0ca8b",
          "blockNumber": "0x1b2d27a",
          "blockTimestamp": "0x687903d4",
          "transactionHash": "0xd896822ed42a744815c720b00b492a21feec9638756b57cd75b0de5da914a6d5",
          "transactionIndex": "0x4",
          "logIndex": "0x4",
          "removed": false
        }
      ],
      "logsBloom": "0x00000000000000000000000000000000000000000000000000000000000000000000000000000000000000000000000000000200000000000000000000000000000000000000000000000000000000000000000000000000000000000000000000000000000000000000000010000000000000000000000000000000000000080000009000000000000000000080000000000000000000000000000000000000000000000000000000000000000000000000000000000000000000000000000000000000000000000800000000000000000000000000000000000000000000000000000000000000000000000000000000000000000002040000000000000000",
      "type": "0x2",
      "transactionHash": "0xd896822ed42a744815c720b00b492a21feec9638756b57cd75b0de5da914a6d5",
      "transactionIndex": "0x4",
      "blockHash": "0x2fb5b0974f66bf7771b16f6557ed31861fb045bfc39158f61b1ec47863f0ca8b",
      "blockNumber": "0x1b2d27a",
      "gasUsed": "0xb83e",
      "effectiveGasPrice": "0xf42ba",
      "from": "0x865aecef8a981f2dc860ee1074119d8821518db3",
      "to": "0x3d87740163cd456bfc925f5a25195889897e9817",
      "contractAddress": null,
      "l1BaseFeeScalar": "0x44d",
      "l1BlobBaseFee": "0x1",
      "l1BlobBaseFeeScalar": "0xa118b",
      "l1Fee": "0x21c61b",
      "l1GasPrice": "0x132bf4",
      "l1GasUsed": "0x640"
    }
  ],
  "libraries": [],
  "pending": [],
  "returns": {},
  "timestamp": 1752761298,
  "chain": 84532,
  "commit": "f0c63ec"
}