{
  "transactions": [
    {
      "hash": "0xb55008057618016a77121015a2dbe1ee90eb933c362fd07f20a297a84af2811d",
      "transactionType": "CALL",
      "contractName": null,
      "contractAddress": "0xb784fd775d0612e889e0da7931fd84c645a40f82",
      "function": "mintLevelNFT(uint256,bytes)",
      "arguments": [
        "5",
        "0xc8221f95b7671dad401df0bd0254815d5b81030450a0fd4dc5c2175bb3112f0907b4485beb84ac990d54e49d042cae84d0ada6dc59ab1deab3965d9b7f2798e61b"
      ],
      "transaction": {
        "from": "0xc3eba45d87b153b6cf39461fc199ffeedaf558bf",
        "to": "0xb784fd775d0612e889e0da7931fd84c645a40f82",
        "gas": "0x3ef14",
        "value": "0x0",
        "input": "0x5e95b84f000000000000000000000000000000000000000000000000000000000000000500000000000000000000000000000000000000000000000000000000000000400000000000000000000000000000000000000000000000000000000000000041c8221f95b7671dad401df0bd0254815d5b81030450a0fd4dc5c2175bb3112f0907b4485beb84ac990d54e49d042cae84d0ada6dc59ab1deab3965d9b7f2798e61b00000000000000000000000000000000000000000000000000000000000000",
        "nonce": "0xc",
        "chainId": "0x14a34"
      },
      "additionalContracts": [],
      "isFixedGasLimit": false
    }
  ],
  "receipts": [
    {
      "status": "0x1",
      "cumulativeGasUsed": "0x8a12c7",
      "logs": [
        {
          "address": "0xa06ca613c67309e8ac18cf8067d8fb1abef0ec86",
          "topics": [
            "0xddf252ad1be2c89b69c2b068fc378daa952ba7f163c4a11628f55a4df523b3ef",
            "0x0000000000000000000000000000000000000000000000000000000000000000",
            "0x000000000000000000000000c3eba45d87b153b6cf39461fc199ffeedaf558bf",
            "0x0000000000000000000000000000000000000000000000000000000000000000"
          ],
          "data": "0x",
          "blockHash": "0x4576f2385905dc0d1a34698b8cf91b5fd780c32f683e0377dcecf535b297633a",
          "blockNumber": "0x1bc927f",
          "blockTimestamp": "0x688c83de",
          "transactionHash": "0xb55008057618016a77121015a2dbe1ee90eb933c362fd07f20a297a84af2811d",
          "transactionIndex": "0x1a",
          "logIndex": "0x60",
          "removed": false
        },
        {
          "address": "0xb784fd775d0612e889e0da7931fd84c645a40f82",
          "topics": [
            "0x6f83ddf415d64fe4327d5d8fdadd602bd988566aea7a66158c9d3e0fd79f156b",
            "0x000000000000000000000000a06ca613c67309e8ac18cf8067d8fb1abef0ec86",
            "0x000000000000000000000000c3eba45d87b153b6cf39461fc199ffeedaf558bf",
            "0x0000000000000000000000000000000000000000000000000000000000000005"
          ],
          "data": "0x0000000000000000000000000000000000000000000000000000000000000000",
          "blockHash": "0x4576f2385905dc0d1a34698b8cf91b5fd780c32f683e0377dcecf535b297633a",
          "blockNumber": "0x1bc927f",
          "blockTimestamp": "0x688c83de",
          "transactionHash": "0xb55008057618016a77121015a2dbe1ee90eb933c362fd07f20a297a84af2811d",
          "transactionIndex": "0x1a",
          "logIndex": "0x61",
          "removed": false
        }
      ],
      "logsBloom": "0x00000000000000000000000000000000020000000000000000000000000000000000000000000000000000000000000000000000000000000000000000000000000010000000000000000008000000000000000000000000000000000000000000002000020000000000000000000800000000000000000000000094000000000000000000000000000000000000001000000800000008000000000000000000000000020020000000000000000000000000000100000000000001000000000008000002000000000000000000000000000000000000000000000004010020000000000000000000000000000004000001000000000000000000080000000000",
      "type": "0x2",
      "transactionHash": "0xb55008057618016a77121015a2dbe1ee90eb933c362fd07f20a297a84af2811d",
      "transactionIndex": "0x1a",
      "blockHash": "0x4576f2385905dc0d1a34698b8cf91b5fd780c32f683e0377dcecf535b297633a",
      "blockNumber": "0x1bc927f",
      "gasUsed": "0x2b09a",
      "effectiveGasPrice": "0xecf0d",
      "from": "0xc3eba45d87b153b6cf39461fc199ffeedaf558bf",
      "to": "0xb784fd775d0612e889e0da7931fd84c645a40f82",
      "contractAddress": null,
      "l1BaseFeeScalar": "0x44d",
      "l1BlobBaseFee": "0x1",
      "l1BlobBaseFeeScalar": "0xa118b",
      "l1Fee": "0x1df50568b",
      "l1GasPrice": "0xc8ac3c8a",
      "l1GasUsed": "0x879"
    }
  ],
  "libraries": [],
  "pending": [],
  "returns": {},
  "timestamp": 1754039261494,
  "chain": 84532,
  "commit": "1998ff9"
}