{
  "transactions": [
    {
      "hash": "0x610d891043550e150f08a4896df861a63dbd543485b0ff59f91d59d49e12792e",
      "transactionType": "CALL",
      "contractName": null,
      "contractAddress": "0xa87801b951682e96edfc5409a4628a534bc91597",
      "function": "mintLevelNFT(uint256,bytes)",
      "arguments": [
        "25",
        "0x254bfe5297a424ddd05d75ac9fd66585166892fb27a7d4ed86c9f0776f8c05fa0d9ce1dcd10e17c3d222ad9d1fb01cfc42fa9cc000158b821ae723e83eda875d1c"
      ],
      "transaction": {
        "from": "0xc3eba45d87b153b6cf39461fc199ffeedaf558bf",
        "to": "0xa87801b951682e96edfc5409a4628a534bc91597",
        "gas": "0x3b731",
        "value": "0x0",
        "input": "0x5e95b84f000000000000000000000000000000000000000000000000000000000000001900000000000000000000000000000000000000000000000000000000000000400000000000000000000000000000000000000000000000000000000000000041254bfe5297a424ddd05d75ac9fd66585166892fb27a7d4ed86c9f0776f8c05fa0d9ce1dcd10e17c3d222ad9d1fb01cfc42fa9cc000158b821ae723e83eda875d1c00000000000000000000000000000000000000000000000000000000000000",
        "nonce": "0xa",
        "chainId": "0x14a34"
      },
      "additionalContracts": [],
      "isFixedGasLimit": false
    }
  ],
  "receipts": [
    {
      "status": "0x1",
      "cumulativeGasUsed": "0x38adeb",
      "logs": [
        {
          "address": "0xf1677ea1d3cfa1accb0d604ea9a222285430a266",
          "topics": [
            "0xddf252ad1be2c89b69c2b068fc378daa952ba7f163c4a11628f55a4df523b3ef",
            "0x0000000000000000000000000000000000000000000000000000000000000000",
            "0x000000000000000000000000c3eba45d87b153b6cf39461fc199ffeedaf558bf",
            "0x0000000000000000000000000000000000000000000000000000000000000000"
          ],
          "data": "0x",
          "blockHash": "0x0986cc4610eda5659a27b44d7920b37372523f82bdf1c246e3f6c154b59d4098",
          "blockNumber": "0x1b2b236",
          "blockTimestamp": "0x6878c34c",
          "transactionHash": "0x610d891043550e150f08a4896df861a63dbd543485b0ff59f91d59d49e12792e",
          "transactionIndex": "0x9",
          "logIndex": "0xb4",
          "removed": false
        },
        {
          "address": "0xa87801b951682e96edfc5409a4628a534bc91597",
          "topics": [
            "0x6f83ddf415d64fe4327d5d8fdadd602bd988566aea7a66158c9d3e0fd79f156b",
            "0x000000000000000000000000f1677ea1d3cfa1accb0d604ea9a222285430a266",
            "0x000000000000000000000000c3eba45d87b153b6cf39461fc199ffeedaf558bf",
            "0x0000000000000000000000000000000000000000000000000000000000000019"
          ],
          "data": "0x0000000000000000000000000000000000000000000000000000000000000000",
          "blockHash": "0x0986cc4610eda5659a27b44d7920b37372523f82bdf1c246e3f6c154b59d4098",
          "blockNumber": "0x1b2b236",
          "blockTimestamp": "0x6878c34c",
          "transactionHash": "0x610d891043550e150f08a4896df861a63dbd543485b0ff59f91d59d49e12792e",
          "transactionIndex": "0x9",
          "logIndex": "0xb5",
          "removed": false
        }
      ],
      "logsBloom": "0x00000000000000000000000000000000000100000000000000000010000000000200000000000000000000000000000000000000000000800000000000000000000000000000000000000008000000000000000000000000000000000048000000001000020000000000000000000800000000000000020000002010004000000000000000000000000000000000000000000000000000000000000000000000002000020020000000000000000000000000000100000000000001000000000000000002000000000000000000000000000000000000000000000000000020000000000000000000000000000004000000000000000000000000088000000000",
      "type": "0x2",
      "transactionHash": "0x610d891043550e150f08a4896df861a63dbd543485b0ff59f91d59d49e12792e",
      "transactionIndex": "0x9",
      "blockHash": "0x0986cc4610eda5659a27b44d7920b37372523f82bdf1c246e3f6c154b59d4098",
      "blockNumber": "0x1b2b236",
      "gasUsed": "0x2b0a6",
      "effectiveGasPrice": "0xd82ac",
      "from": "0xc3eba45d87b153b6cf39461fc199ffeedaf558bf",
      "to": "0xa87801b951682e96edfc5409a4628a534bc91597",
      "contractAddress": null,
      "l1BaseFeeScalar": "0x44d",
      "l1BlobBaseFee": "0x1",
      "l1BlobBaseFeeScalar": "0xa118b",
      "l1Fee": "0x231b9c",
      "l1GasPrice": "0xeb2ab",
      "l1GasUsed": "0x879"
    }
  ],
  "libraries": [],
  "pending": [],
  "returns": {},
  "timestamp": 1752744778,
  "chain": 84532,
  "commit": "b0e9ce2"
}