{
  "transactions": [
    {
      "hash": "0x30ac7a1d278d6296c1ccb0a748deaff2ed21958fa6aa2adb7ddfc4203d421159",
      "transactionType": "CALL",
      "contractName": null,
      "contractAddress": "0x3d87740163cd456bfc925f5a25195889897e9817",
      "function": "mintLevelNFT(uint256,bytes)",
      "arguments": [
        "5",
        "0xc8221f95b7671dad401df0bd0254815d5b81030450a0fd4dc5c2175bb3112f0907b4485beb84ac990d54e49d042cae84d0ada6dc59ab1deab3965d9b7f2798e61b"
      ],
      "transaction": {
        "from": "0xc3eba45d87b153b6cf39461fc199ffeedaf558bf",
        "to": "0x3d87740163cd456bfc925f5a25195889897e9817",
        "gas": "0x3ef37",
        "value": "0x0",
        "input": "0x5e95b84f000000000000000000000000000000000000000000000000000000000000000500000000000000000000000000000000000000000000000000000000000000400000000000000000000000000000000000000000000000000000000000000041c8221f95b7671dad401df0bd0254815d5b81030450a0fd4dc5c2175bb3112f0907b4485beb84ac990d54e49d042cae84d0ada6dc59ab1deab3965d9b7f2798e61b00000000000000000000000000000000000000000000000000000000000000",
        "nonce": "0xb",
        "chainId": "0x14a34"
      },
      "additionalContracts": [],
      "isFixedGasLimit": false
    }
  ],
  "receipts": [
    {
      "status": "0x1",
      "cumulativeGasUsed": "0x30ff14",
      "logs": [
        {
          "address": "0x1473d26fc2acf4e499abb8aa12043932a3c1c3dd",
          "topics": [
            "0xddf252ad1be2c89b69c2b068fc378daa952ba7f163c4a11628f55a4df523b3ef",
            "0x0000000000000000000000000000000000000000000000000000000000000000",
            "0x000000000000000000000000c3eba45d87b153b6cf39461fc199ffeedaf558bf",
            "0x0000000000000000000000000000000000000000000000000000000000000000"
          ],
          "data": "0x",
          "blockHash": "0x73b128486c1c96b79cf66f1e95801bb6df8f8e176ed1eed8f08cf93e559eba02",
          "blockNumber": "0x1b2d2f2",
          "transactionHash": "0x30ac7a1d278d6296c1ccb0a748deaff2ed21958fa6aa2adb7ddfc4203d421159",
          "transactionIndex": "0x11",
          "logIndex": "0x6c",
          "removed": false
        },
        {
          "address": "0x3d87740163cd456bfc925f5a25195889897e9817",
          "topics": [
            "0x6f83ddf415d64fe4327d5d8fdadd602bd988566aea7a66158c9d3e0fd79f156b",
            "0x0000000000000000000000001473d26fc2acf4e499abb8aa12043932a3c1c3dd",
            "0x000000000000000000000000c3eba45d87b153b6cf39461fc199ffeedaf558bf",
            "0x0000000000000000000000000000000000000000000000000000000000000005"
          ],
          "data": "0x0000000000000000000000000000000000000000000000000000000000000000",
          "blockHash": "0x73b128486c1c96b79cf66f1e95801bb6df8f8e176ed1eed8f08cf93e559eba02",
          "blockNumber": "0x1b2d2f2",
          "transactionHash": "0x30ac7a1d278d6296c1ccb0a748deaff2ed21958fa6aa2adb7ddfc4203d421159",
          "transactionIndex": "0x11",
          "logIndex": "0x6d",
          "removed": false
        }
      ],
      "logsBloom": "0x00000000000000000000020000000000000000000000000000000002000000000000000000000000000000000000000000000000000000000000000000008000000010000000000000000008000000010000000000000000000000000000000000000000020000000000000000000800000000000000000000000010000000080000008000000000000000000000001000000800000000000000000200000000000000020020000000000000000000000000000100000000100001000000000000000002000000000000000000000000000000000000000000000000000020000000000000000000000000000004000000000000000000040000080000000000",
      "type": "0x2",
      "transactionHash": "0x30ac7a1d278d6296c1ccb0a748deaff2ed21958fa6aa2adb7ddfc4203d421159",
      "transactionIndex": "0x11",
      "blockHash": "0x73b128486c1c96b79cf66f1e95801bb6df8f8e176ed1eed8f08cf93e559eba02",
      "blockNumber": "0x1b2d2f2",
      "gasUsed": "0x2b0b2",
      "effectiveGasPrice": "0xf07e1",
      "from": "0xc3eba45d87b153b6cf39461fc199ffeedaf558bf",
      "to": "0x3d87740163cd456bfc925f5a25195889897e9817",
      "contractAddress": null,
      "l1BaseFeeScalar": "0x44d",
      "l1BlobBaseFee": "0x1",
      "l1BlobBaseFeeScalar": "0xa118b",
      "l1Fee": "0x28424b",
      "l1GasPrice": "0x10dac2",
      "l1GasUsed": "0x879"
    }
  ],
  "libraries": [],
  "pending": [],
  "returns": {},
  "timestamp": 1752761541,
  "chain": 84532,
  "commit": "f0c63ec"
}