{
  "transactions": [
    {
      "hash": "0x4425669208c670f1cbb3432629a40bb036b7f92ee28236bec5cf0f833de8760a",
      "transactionType": "CALL",
      "contractName": null,
      "contractAddress": "0x5220e9bd2f35361f283fb0f9808f0cf348b90595",
      "function": "mintLevelNFT(uint256,bytes)",
      "arguments": [
        "5",
        "0xc8221f95b7671dad401df0bd0254815d5b81030450a0fd4dc5c2175bb3112f0907b4485beb84ac990d54e49d042cae84d0ada6dc59ab1deab3965d9b7f2798e61b"
      ],
      "transaction": {
        "from": "0xc3eba45d87b153b6cf39461fc199ffeedaf558bf",
        "to": "0x5220e9bd2f35361f283fb0f9808f0cf348b90595",
        "gas": "0x3ee70",
        "value": "0x0",
        "input": "0x5e95b84f000000000000000000000000000000000000000000000000000000000000000500000000000000000000000000000000000000000000000000000000000000400000000000000000000000000000000000000000000000000000000000000041c8221f95b7671dad401df0bd0254815d5b81030450a0fd4dc5c2175bb3112f0907b4485beb84ac990d54e49d042cae84d0ada6dc59ab1deab3965d9b7f2798e61b00000000000000000000000000000000000000000000000000000000000000",
        "nonce": "0x0",
        "chainId": "0x14a34"
      },
      "additionalContracts": [],
      "isFixedGasLimit": false
    }
  ],
  "receipts": [
    {
      "status": "0x1",
      "cumulativeGasUsed": "0x1e8109",
      "logs": [
        {
          "address": "0x5990491336f171148899f1d0b754ff863fa63932",
          "topics": [
            "0xddf252ad1be2c89b69c2b068fc378daa952ba7f163c4a11628f55a4df523b3ef",
            "0x0000000000000000000000000000000000000000000000000000000000000000",
            "0x000000000000000000000000c3eba45d87b153b6cf39461fc199ffeedaf558bf",
            "0x0000000000000000000000000000000000000000000000000000000000000000"
          ],
          "data": "0x",
          "blockHash": "0x38ccc783b3849caa6095aec3055210562c37f90ea9bdc24f7e48d4de757d8c3f",
          "blockNumber": "0x1b24168",
          "transactionHash": "0x4425669208c670f1cbb3432629a40bb036b7f92ee28236bec5cf0f833de8760a",
          "transactionIndex": "0xa",
          "logIndex": "0x1b",
          "removed": false
        },
        {
          "address": "0x5220e9bd2f35361f283fb0f9808f0cf348b90595",
          "topics": [
            "0x6f83ddf415d64fe4327d5d8fdadd602bd988566aea7a66158c9d3e0fd79f156b",
            "0x0000000000000000000000005990491336f171148899f1d0b754ff863fa63932",
            "0x000000000000000000000000c3eba45d87b153b6cf39461fc199ffeedaf558bf",
            "0x0000000000000000000000000000000000000000000000000000000000000005"
          ],
          "data": "0x0000000000000000000000000000000000000000000000000000000000000000",
          "blockHash": "0x38ccc783b3849caa6095aec3055210562c37f90ea9bdc24f7e48d4de757d8c3f",
          "blockNumber": "0x1b24168",
          "transactionHash": "0x4425669208c670f1cbb3432629a40bb036b7f92ee28236bec5cf0f833de8760a",
          "transactionIndex": "0xa",
          "logIndex": "0x1c",
          "removed": false
        }
      ],
      "logsBloom": "0x00000000020000000000000000000000000000000000000000000000000000000000000000000000000000000000000000000000000000000000000000000000000010000000000000000008000000000000000000000000000000000000000000000010020000000000000000000800000000000000000000000010020000000000000000000000000000000000001000000800000000000000000000000800000000420020000200000000000000000000000100000000100001000000000000000002000000000000000100000000000000200000000000000000000020000000000000000000000000000004000000000000000000000000080000000000",
      "type": "0x2",
      "transactionHash": "0x4425669208c670f1cbb3432629a40bb036b7f92ee28236bec5cf0f833de8760a",
      "transactionIndex": "0xa",
      "blockHash": "0x38ccc783b3849caa6095aec3055210562c37f90ea9bdc24f7e48d4de757d8c3f",
      "blockNumber": "0x1b24168",
      "gasUsed": "0x2b02a",
      "effectiveGasPrice": "0xf427b",
      "from": "0xc3eba45d87b153b6cf39461fc199ffeedaf558bf",
      "to": "0x5220e9bd2f35361f283fb0f9808f0cf348b90595",
      "contractAddress": null,
      "l1BaseFeeScalar": "0x44d",
      "l1BlobBaseFee": "0x1",
      "l1BlobBaseFeeScalar": "0xa118b",
      "l1Fee": "0x4e130f",
      "l1GasPrice": "0x20afc6",
      "l1GasUsed": "0x879"
    }
  ],
  "libraries": [],
  "pending": [],
  "returns": {},
  "timestamp": 1752687024,
  "chain": 84532,
  "commit": "84cdd11"
}