{
  "transactions": [
    {
      "hash": "0x2aacf1cee6fc09accd201cc0a4debb7adb88f43506e2fa81ade92d71d1a3f24c",
      "transactionType": "CALL",
      "contractName": null,
      "contractAddress": "0xa664ff3732f20cbf0b0a5ebaaf267aa32f4adfcb",
      "function": "mintLevelNFT(uint256,bytes)",
      "arguments": [
        "10",
        "0x63d29b66370049fd0e81f0ae3d5399b29d32c57a43458ff475e027c295789b864c853c648533e5d6784afa09c41e56bdf4c982f859916d25d7e2e7aea8712a4e1b"
      ],
      "transaction": {
        "from": "0xc3eba45d87b153b6cf39461fc199ffeedaf558bf",
        "to": "0xa664ff3732f20cbf0b0a5ebaaf267aa32f4adfcb",
        "gas": "0x2fe18",
        "value": "0x0",
        "input": "0x5e95b84f000000000000000000000000000000000000000000000000000000000000000a0000000000000000000000000000000000000000000000000000000000000040000000000000000000000000000000000000000000000000000000000000004163d29b66370049fd0e81f0ae3d5399b29d32c57a43458ff475e027c295789b864c853c648533e5d6784afa09c41e56bdf4c982f859916d25d7e2e7aea8712a4e1b00000000000000000000000000000000000000000000000000000000000000",
        "nonce": "0x5",
        "chainId": "0x14a34"
      },
      "additionalContracts": [],
      "isFixedGasLimit": false
    }
  ],
  "receipts": [
    {
      "status": "0x1",
      "cumulativeGasUsed": "0x222f96",
      "logs": [
        {
          "address": "0xdcd3be3c04b4a8ce772b9e3a97ac32515d86fbc3",
          "topics": [
            "0xddf252ad1be2c89b69c2b068fc378daa952ba7f163c4a11628f55a4df523b3ef",
            "0x0000000000000000000000000000000000000000000000000000000000000000",
            "0x000000000000000000000000c3eba45d87b153b6cf39461fc199ffeedaf558bf",
            "0x0000000000000000000000000000000000000000000000000000000000000001"
          ],
          "data": "0x",
          "blockHash": "0x87310ce8cd6fbfcdd6fda2468c96ef0fb7c289371c2ce3a657bcfe42b2e0127c",
          "blockNumber": "0x1b2477f",
          "transactionHash": "0x2aacf1cee6fc09accd201cc0a4debb7adb88f43506e2fa81ade92d71d1a3f24c",
          "transactionIndex": "0x9",
          "logIndex": "0x6e",
          "removed": false
        },
        {
          "address": "0xa664ff3732f20cbf0b0a5ebaaf267aa32f4adfcb",
          "topics": [
            "0x6f83ddf415d64fe4327d5d8fdadd602bd988566aea7a66158c9d3e0fd79f156b",
            "0x000000000000000000000000dcd3be3c04b4a8ce772b9e3a97ac32515d86fbc3",
            "0x000000000000000000000000c3eba45d87b153b6cf39461fc199ffeedaf558bf",
            "0x000000000000000000000000000000000000000000000000000000000000000a"
          ],
          "data": "0x0000000000000000000000000000000000000000000000000000000000000001",
          "blockHash": "0x87310ce8cd6fbfcdd6fda2468c96ef0fb7c289371c2ce3a657bcfe42b2e0127c",
          "blockNumber": "0x1b2477f",
          "transactionHash": "0x2aacf1cee6fc09accd201cc0a4debb7adb88f43506e2fa81ade92d71d1a3f24c",
          "transactionIndex": "0x9",
          "logIndex": "0x6f",
          "removed": false
        }
      ],
      "logsBloom": "0x00000000000000000000000000800000000000000000000000000000000000000000000400020000000000000000000000000000040000000020000000040000000000000000000000000008000000000000000000040000010000000000000000000000020010000000000000000800000000000000000000000010000000000000000000000000010000000000000000800000040000000000000000000000000000020020000000000000000000000000000100000000000001000000000000000002000000000000000000000000400000000000000000000000000060000000000000000000000000000004000000000000000000200000080000000000",
      "type": "0x2",
      "transactionHash": "0x2aacf1cee6fc09accd201cc0a4debb7adb88f43506e2fa81ade92d71d1a3f24c",
      "transactionIndex": "0x9",
      "blockHash": "0x87310ce8cd6fbfcdd6fda2468c96ef0fb7c289371c2ce3a657bcfe42b2e0127c",
      "blockNumber": "0x1b2477f",
      "gasUsed": "0x22aa4",
      "effectiveGasPrice": "0xf4280",
      "from": "0xc3eba45d87b153b6cf39461fc199ffeedaf558bf",
      "to": "0xa664ff3732f20cbf0b0a5ebaaf267aa32f4adfcb",
      "contractAddress": null,
      "l1BaseFeeScalar": "0x44d",
      "l1BlobBaseFee": "0x1",
      "l1BlobBaseFeeScalar": "0xa118b",
      "l1Fee": "0x1baf23",
      "l1GasPrice": "0xb9701",
      "l1GasUsed": "0x879"
    }
  ],
  "libraries": [],
  "pending": [],
  "returns": {},
  "timestamp": 1752690143,
  "chain": 84532,
  "commit": "ade7c15"
}