{
  "transactions": [
    {
      "hash": "0x6007460e0805aa4c6c73c301f78cabbdc1109d919d298e1f74ce6e02c80e7789",
      "transactionType": "CALL",
      "contractName": null,
      "contractAddress": "0x13e05a1b0e1ed38748355ef65efd22df210eceba",
      "function": "mintLevelNFT(uint256,bytes)",
      "arguments": [
        "5",
        "0xc8221f95b7671dad401df0bd0254815d5b81030450a0fd4dc5c2175bb3112f0907b4485beb84ac990d54e49d042cae84d0ada6dc59ab1deab3965d9b7f2798e61b"
      ],
      "transaction": {
        "from": "0xc3eba45d87b153b6cf39461fc199ffeedaf558bf",
        "to": "0x13e05a1b0e1ed38748355ef65efd22df210eceba",
        "gas": "0x3ee70",
        "value": "0x0",
        "input": "0x5e95b84f000000000000000000000000000000000000000000000000000000000000000500000000000000000000000000000000000000000000000000000000000000400000000000000000000000000000000000000000000000000000000000000041c8221f95b7671dad401df0bd0254815d5b81030450a0fd4dc5c2175bb3112f0907b4485beb84ac990d54e49d042cae84d0ada6dc59ab1deab3965d9b7f2798e61b00000000000000000000000000000000000000000000000000000000000000",
        "nonce": "0x2",
        "chainId": "0x14a34"
      },
      "additionalContracts": [],
      "isFixedGasLimit": false
    }
  ],
  "receipts": [
    {
      "status": "0x1",
      "cumulativeGasUsed": "0x6824e2",
      "logs": [
        {
          "address": "0x2c2a82396823fd429d5cc748107a4a50b511c4cb",
          "topics": [
            "0xddf252ad1be2c89b69c2b068fc378daa952ba7f163c4a11628f55a4df523b3ef",
            "0x0000000000000000000000000000000000000000000000000000000000000000",
            "0x000000000000000000000000c3eba45d87b153b6cf39461fc199ffeedaf558bf",
            "0x0000000000000000000000000000000000000000000000000000000000000000"
          ],
          "data": "0x",
          "blockHash": "0x13c97ae4466fa0df9317d7cd94fef7d7054479d360ba2bfa7f1dc503e963d9a2",
          "blockNumber": "0x1b242b9",
          "transactionHash": "0x6007460e0805aa4c6c73c301f78cabbdc1109d919d298e1f74ce6e02c80e7789",
          "transactionIndex": "0x10",
          "logIndex": "0x8a",
          "removed": false
        },
        {
          "address": "0x13e05a1b0e1ed38748355ef65efd22df210eceba",
          "topics": [
            "0x6f83ddf415d64fe4327d5d8fdadd602bd988566aea7a66158c9d3e0fd79f156b",
            "0x0000000000000000000000002c2a82396823fd429d5cc748107a4a50b511c4cb",
            "0x000000000000000000000000c3eba45d87b153b6cf39461fc199ffeedaf558bf",
            "0x0000000000000000000000000000000000000000000000000000000000000005"
          ],
          "data": "0x0000000000000000000000000000000000000000000000000000000000000000",
          "blockHash": "0x13c97ae4466fa0df9317d7cd94fef7d7054479d360ba2bfa7f1dc503e963d9a2",
          "blockNumber": "0x1b242b9",
          "transactionHash": "0x6007460e0805aa4c6c73c301f78cabbdc1109d919d298e1f74ce6e02c80e7789",
          "transactionIndex": "0x10",
          "logIndex": "0x8b",
          "removed": false
        }
      ],
      "logsBloom": "0x00000000000000000000000000040000000000000000000000000000000000000000000000400000080000000000000000002000000000000000000000000000000010000000000000000008000000000000000000000000000000000000000000000000020000000000000000000800000000400000000000000010000000000000000000000000000000000000001000000800000800000000000000000000000000020020000000000000000000000000000100000000000001002000000000000002000000000000000000000000000000000000100000000000000020000000000000000000000000008004000000000000000000000000080000000000",
      "type": "0x2",
      "transactionHash": "0x6007460e0805aa4c6c73c301f78cabbdc1109d919d298e1f74ce6e02c80e7789",
      "transactionIndex": "0x10",
      "blockHash": "0x13c97ae4466fa0df9317d7cd94fef7d7054479d360ba2bfa7f1dc503e963d9a2",
      "blockNumber": "0x1b242b9",
      "gasUsed": "0x2b02a",
      "effectiveGasPrice": "0xf427d",
      "from": "0xc3eba45d87b153b6cf39461fc199ffeedaf558bf",
      "to": "0x13e05a1b0e1ed38748355ef65efd22df210eceba",
      "contractAddress": null,
      "l1BaseFeeScalar": "0x44d",
      "l1BlobBaseFee": "0x1",
      "l1BlobBaseFeeScalar": "0xa118b",
      "l1Fee": "0x2c2bd1",
      "l1GasPrice": "0x127e10",
      "l1GasUsed": "0x879"
    }
  ],
  "libraries": [],
  "pending": [],
  "returns": {},
  "timestamp": 1752687697,
  "chain": 84532,
  "commit": "84cdd11"
}