{
  "transactions": [
    {
      "hash": "0xf5ab690463eddb56e62b601c277eed8389e07217bf9e0c1cca0401a96027d5b9",
      "transactionType": "CALL",
      "contractName": null,
      "contractAddress": "0xb53b2f23bed9b30a693bfec40da866200569a3bd",
      "function": "mintLevelNFT(uint256,bytes)",
      "arguments": [
        "10",
        "0x63d29b66370049fd0e81f0ae3d5399b29d32c57a43458ff475e027c295789b864c853c648533e5d6784afa09c41e56bdf4c982f859916d25d7e2e7aea8712a4e1b"
      ],
      "transaction": {
        "from": "0xc3eba45d87b153b6cf39461fc199ffeedaf558bf",
        "to": "0xb53b2f23bed9b30a693bfec40da866200569a3bd",
        "gas": "0x3b6a5",
        "value": "0x0",
        "input": "0x5e95b84f000000000000000000000000000000000000000000000000000000000000000a0000000000000000000000000000000000000000000000000000000000000040000000000000000000000000000000000000000000000000000000000000004163d29b66370049fd0e81f0ae3d5399b29d32c57a43458ff475e027c295789b864c853c648533e5d6784afa09c41e56bdf4c982f859916d25d7e2e7aea8712a4e1b00000000000000000000000000000000000000000000000000000000000000",
        "nonce": "0x3",
        "chainId": "0x14a34"
      },
      "additionalContracts": [],
      "isFixedGasLimit": false
    }
  ],
  "receipts": [
    {
      "status": "0x1",
      "cumulativeGasUsed": "0x2f14c5",
      "logs": [
        {
          "address": "0x1f915f397cf086d60680bc0bcec391ae48db86fc",
          "topics": [
            "0xddf252ad1be2c89b69c2b068fc378daa952ba7f163c4a11628f55a4df523b3ef",
            "0x0000000000000000000000000000000000000000000000000000000000000000",
            "0x000000000000000000000000c3eba45d87b153b6cf39461fc199ffeedaf558bf",
            "0x0000000000000000000000000000000000000000000000000000000000000000"
          ],
          "data": "0x",
          "blockHash": "0x8cf87d0b1d0dfcb1890a184187f8ac60c1f5489ec3417162179099d06043c04e",
          "blockNumber": "0x1b24596",
          "blockTimestamp": "0x6877ea0c",
          "transactionHash": "0xf5ab690463eddb56e62b601c277eed8389e07217bf9e0c1cca0401a96027d5b9",
          "transactionIndex": "0xa",
          "logIndex": "0x5d",
          "removed": false
        },
        {
          "address": "0xb53b2f23bed9b30a693bfec40da866200569a3bd",
          "topics": [
            "0x6f83ddf415d64fe4327d5d8fdadd602bd988566aea7a66158c9d3e0fd79f156b",
            "0x0000000000000000000000001f915f397cf086d60680bc0bcec391ae48db86fc",
            "0x000000000000000000000000c3eba45d87b153b6cf39461fc199ffeedaf558bf",
            "0x000000000000000000000000000000000000000000000000000000000000000a"
          ],
          "data": "0x0000000000000000000000000000000000000000000000000000000000000000",
          "blockHash": "0x8cf87d0b1d0dfcb1890a184187f8ac60c1f5489ec3417162179099d06043c04e",
          "blockNumber": "0x1b24596",
          "blockTimestamp": "0x6877ea0c",
          "transactionHash": "0xf5ab690463eddb56e62b601c277eed8389e07217bf9e0c1cca0401a96027d5b9",
          "transactionIndex": "0xa",
          "logIndex": "0x5e",
          "removed": false
        }
      ],
      "logsBloom": "0x00000000000000000040000000000000000000000000000040000000000000000000000000000000000000000000000000000000040000000020000000000000000000000000000000000008000000000000000000000000000000000000000000000000020800000000000000000800000000000000002000000010000000000000000000000000010000000000000000000000000000000000000000000000000000020020200000000000000000000000000100000000000001000000000000000002040001000000000000000000001000000000000000000000000020000000100000000000000000000004000000000000000000000000080000000000",
      "type": "0x2",
      "transactionHash": "0xf5ab690463eddb56e62b601c277eed8389e07217bf9e0c1cca0401a96027d5b9",
      "transactionIndex": "0xa",
      "blockHash": "0x8cf87d0b1d0dfcb1890a184187f8ac60c1f5489ec3417162179099d06043c04e",
      "blockNumber": "0x1b24596",
      "gasUsed": "0x2b040",
      "effectiveGasPrice": "0xf42ba",
      "from": "0xc3eba45d87b153b6cf39461fc199ffeedaf558bf",
      "to": "0xb53b2f23bed9b30a693bfec40da866200569a3bd",
      "contractAddress": null,
      "l1BaseFeeScalar": "0x44d",
      "l1BlobBaseFee": "0x1",
      "l1BlobBaseFeeScalar": "0xa118b",
      "l1Fee": "0x2cf7fd",
      "l1GasPrice": "0x12d38b",
      "l1GasUsed": "0x879"
    }
  ],
  "libraries": [],
  "pending": [],
  "returns": {},
  "timestamp": 1752689162,
  "chain": 84532,
  "commit": "ade7c15"
}