{
  "transactions": [
    {
      "hash": "0x1e6484a460cbd0f8f92341f46316ac2fe295de67e8482cfcd918e7840d0c7ed3",
      "transactionType": "CALL",
      "contractName": null,
      "contractAddress": "0xa664ff3732f20cbf0b0a5ebaaf267aa32f4adfcb",
      "function": "mintLevelNFT(uint256,bytes)",
      "arguments": [
        "20",
        "0x6050fa392d26717aba805828c5f5c475a502db4b10cb0ee60ad02743675f81c17f6fb3df40dafe6772b6a0c4e87c413fb57ee771be4a635f8d68a6e688f70d4f1c"
      ],
      "transaction": {
        "from": "0xc3eba45d87b153b6cf39461fc199ffeedaf558bf",
        "to": "0xa664ff3732f20cbf0b0a5ebaaf267aa32f4adfcb",
        "gas": "0x2fe29",
        "value": "0x0",
        "input": "0x5e95b84f0000000000000000000000000000000000000000000000000000000000000014000000000000000000000000000000000000000000000000000000000000004000000000000000000000000000000000000000000000000000000000000000416050fa392d26717aba805828c5f5c475a502db4b10cb0ee60ad02743675f81c17f6fb3df40dafe6772b6a0c4e87c413fb57ee771be4a635f8d68a6e688f70d4f1c00000000000000000000000000000000000000000000000000000000000000",
        "nonce": "0x7",
        "chainId": "0x14a34"
      },
      "additionalContracts": [],
      "isFixedGasLimit": false
    }
  ],
  "receipts": [
    {
      "status": "0x1",
      "cumulativeGasUsed": "0x3a92a6",
      "logs": [
        {
          "address": "0xdcd3be3c04b4a8ce772b9e3a97ac32515d86fbc3",
          "topics": [
            "0xddf252ad1be2c89b69c2b068fc378daa952ba7f163c4a11628f55a4df523b3ef",
            "0x0000000000000000000000000000000000000000000000000000000000000000",
            "0x000000000000000000000000c3eba45d87b153b6cf39461fc199ffeedaf558bf",
            "0x0000000000000000000000000000000000000000000000000000000000000003"
          ],
          "data": "0x",
          "blockHash": "0x4ba68bb8f078cde32007f140a9b0c1b5e4078bf5b20584f288df9a5bd829b2fe",
          "blockNumber": "0x1b24965",
          "blockTimestamp": "0x6877f1aa",
          "transactionHash": "0x1e6484a460cbd0f8f92341f46316ac2fe295de67e8482cfcd918e7840d0c7ed3",
          "transactionIndex": "0x8",
          "logIndex": "0xb0",
          "removed": false
        },
        {
          "address": "0xa664ff3732f20cbf0b0a5ebaaf267aa32f4adfcb",
          "topics": [
            "0x6f83ddf415d64fe4327d5d8fdadd602bd988566aea7a66158c9d3e0fd79f156b",
            "0x000000000000000000000000dcd3be3c04b4a8ce772b9e3a97ac32515d86fbc3",
            "0x000000000000000000000000c3eba45d87b153b6cf39461fc199ffeedaf558bf",
            "0x0000000000000000000000000000000000000000000000000000000000000014"
          ],
          "data": "0x0000000000000000000000000000000000000000000000000000000000000003",
          "blockHash": "0x4ba68bb8f078cde32007f140a9b0c1b5e4078bf5b20584f288df9a5bd829b2fe",
          "blockNumber": "0x1b24965",
          "blockTimestamp": "0x6877f1aa",
          "transactionHash": "0x1e6484a460cbd0f8f92341f46316ac2fe295de67e8482cfcd918e7840d0c7ed3",
          "transactionIndex": "0x8",
          "logIndex": "0xb1",
          "removed": false
        }
      ],
      "logsBloom": "0x00000000000000000000000000800000000000000000000000000000000000000000000400020000000000000000000000002000020000000000000000000000000000000000000000000008000000000000000000000000010000000000000000000000020010000000000000000800000000000000000000000010000000000000000000000000000000000000000000800000040400000000000000000000000000020020000020000000000000000000000100800000000001000000400000000002000000000000000000000000400000000000000000000000000020000000000000000000000000000004000000000000000000200000080000000000",
      "type": "0x2",
      "transactionHash": "0x1e6484a460cbd0f8f92341f46316ac2fe295de67e8482cfcd918e7840d0c7ed3",
      "transactionIndex": "0x8",
      "blockHash": "0x4ba68bb8f078cde32007f140a9b0c1b5e4078bf5b20584f288df9a5bd829b2fe",
      "blockNumber": "0x1b24965",
      "gasUsed": "0x22ab0",
      "effectiveGasPrice": "0xf42c0",
      "from": "0xc3eba45d87b153b6cf39461fc199ffeedaf558bf",
      "to": "0xa664ff3732f20cbf0b0a5ebaaf267aa32f4adfcb",
      "contractAddress": null,
      "l1BaseFeeScalar": "0x44d",
      "l1BlobBaseFee": "0x1",
      "l1BlobBaseFeeScalar": "0xa118b",
      "l1Fee": "0x37cb74",
      "l1GasPrice": "0x175bdd",
      "l1GasUsed": "0x879"
    }
  ],
  "libraries": [],
  "pending": [],
  "returns": {},
  "timestamp": 1752691112,
  "chain": 84532,
  "commit": "ade7c15"
}