{
  "transactions": [
    {
      "hash": "0xb13b523af4fe355c9aaefabca868bad5eafbab8e689b6302a47bb3305ff82834",
      "transactionType": "CALL",
      "contractName": null,
      "contractAddress": "0x9263c95d92a06c85478f8ebb10c45651ae01f991",
      "function": "mintLevelNFT(uint256,bytes)",
      "arguments": [
        "5",
        "0xc8221f95b7671dad401df0bd0254815d5b81030450a0fd4dc5c2175bb3112f0907b4485beb84ac990d54e49d042cae84d0ada6dc59ab1deab3965d9b7f2798e61b"
      ],
      "transaction": {
        "from": "0xc3eba45d87b153b6cf39461fc199ffeedaf558bf",
        "to": "0x9263c95d92a06c85478f8ebb10c45651ae01f991",
        "gas": "0x3ee70",
        "value": "0x0",
        "input": "0x5e95b84f000000000000000000000000000000000000000000000000000000000000000500000000000000000000000000000000000000000000000000000000000000400000000000000000000000000000000000000000000000000000000000000041c8221f95b7671dad401df0bd0254815d5b81030450a0fd4dc5c2175bb3112f0907b4485beb84ac990d54e49d042cae84d0ada6dc59ab1deab3965d9b7f2798e61b00000000000000000000000000000000000000000000000000000000000000",
        "nonce": "0x1",
        "chainId": "0x14a34"
      },
      "additionalContracts": [],
      "isFixedGasLimit": false
    }
  ],
  "receipts": [
    {
      "status": "0x1",
      "cumulativeGasUsed": "0x99fb8",
      "logs": [
        {
          "address": "0x5eb242da5cb6dfe2f6863de82d658b1148212165",
          "topics": [
            "0xddf252ad1be2c89b69c2b068fc378daa952ba7f163c4a11628f55a4df523b3ef",
            "0x0000000000000000000000000000000000000000000000000000000000000000",
            "0x000000000000000000000000c3eba45d87b153b6cf39461fc199ffeedaf558bf",
            "0x0000000000000000000000000000000000000000000000000000000000000000"
          ],
          "data": "0x",
          "blockHash": "0x1afb7d00c67371c2dbf4f61bc10e7506412b168dcb59396a524b71f737dde51d",
          "blockNumber": "0x1b24275",
          "blockTimestamp": "0x6877e3ca",
          "transactionHash": "0xb13b523af4fe355c9aaefabca868bad5eafbab8e689b6302a47bb3305ff82834",
          "transactionIndex": "0x2",
          "logIndex": "0x0",
          "removed": false
        },
        {
          "address": "0x9263c95d92a06c85478f8ebb10c45651ae01f991",
          "topics": [
            "0x6f83ddf415d64fe4327d5d8fdadd602bd988566aea7a66158c9d3e0fd79f156b",
            "0x0000000000000000000000005eb242da5cb6dfe2f6863de82d658b1148212165",
            "0x000000000000000000000000c3eba45d87b153b6cf39461fc199ffeedaf558bf",
            "0x0000000000000000000000000000000000000000000000000000000000000005"
          ],
          "data": "0x0000000000000000000000000000000000000000000000000000000000000000",
          "blockHash": "0x1afb7d00c67371c2dbf4f61bc10e7506412b168dcb59396a524b71f737dde51d",
          "blockNumber": "0x1b24275",
          "blockTimestamp": "0x6877e3ca",
          "transactionHash": "0xb13b523af4fe355c9aaefabca868bad5eafbab8e689b6302a47bb3305ff82834",
          "transactionIndex": "0x2",
          "logIndex": "0x1",
          "removed": false
        }
      ],
      "logsBloom": "0x00000000000000000000000000000000000000000000000000000000000000000000000000000000000000000000000000000000000000000000000000000000000010000000000000000008000010000000000000000000000000000000000080000000020000000000000000400808000000000000000000000010000000000000000000000000000000000000001000000800000000000000000008000000000000020020000000000000000000000000000100000000000001000000000000000002000000000000000000000100000000000000000004000000000020008000080000000000000000000004000000000000000000000000080000000000",
      "type": "0x2",
      "transactionHash": "0xb13b523af4fe355c9aaefabca868bad5eafbab8e689b6302a47bb3305ff82834",
      "transactionIndex": "0x2",
      "blockHash": "0x1afb7d00c67371c2dbf4f61bc10e7506412b168dcb59396a524b71f737dde51d",
      "blockNumber": "0x1b24275",
      "gasUsed": "0x2b02a",
      "effectiveGasPrice": "0xf42b6",
      "from": "0xc3eba45d87b153b6cf39461fc199ffeedaf558bf",
      "to": "0x9263c95d92a06c85478f8ebb10c45651ae01f991",
      "contractAddress": null,
      "l1BaseFeeScalar": "0x44d",
      "l1BlobBaseFee": "0x1",
      "l1BlobBaseFeeScalar": "0xa118b",
      "l1Fee": "0x3719a1",
      "l1GasPrice": "0x17116a",
      "l1GasUsed": "0x879"
    }
  ],
  "libraries": [],
  "pending": [],
  "returns": {},
  "timestamp": 1752687560,
  "chain": 84532,
  "commit": "84cdd11"
}