{
  "transactions": [
    {
      "hash": "0x2898235f23ec04676a68e779adc2a9b940cef9c79cc1b36d29a9bf2424ff2ef8",
      "transactionType": "CALL",
      "contractName": "AIBasedNFTFactory",
      "contractAddress": "0x418737ec22f93e95dd1dde7860a718d3e3a4d886",
      "function": "setW3PassAddress(address)",
      "arguments": [
        "0x6268D1d34Be8058B73737A362E15395816e4EdBA"
      ],
      "transaction": {
        "from": "0xc2d98bc812d41df994fa67601e576e4380c1739f",
        "to": "0x418737ec22f93e95dd1dde7860a718d3e3a4d886",
        "gas": "0x9cd0",
        "value": "0x0",
        "input": "0x806acdbd0000000000000000000000006268d1d34be8058b73737a362e15395816e4edba",
        "nonce": "0xa2",
        "chainId": "0x2105"
      },
      "additionalContracts": [],
      "isFixedGasLimit": false
    }
  ],
  "receipts": [
    {
      "status": "0x1",
      "cumulativeGasUsed": "0x796f94",
      "logs": [
        {
          "address": "0x418737ec22f93e95dd1dde7860a718d3e3a4d886",
          "topics": [
            "0x7385b7560f5405dff81649e6c766532edc2772c415bfe8ba2b8100d288b665d9",
            "0x0000000000000000000000006268d1d34be8058b73737a362e15395816e4edba"
          ],
          "data": "0x",
          "blockHash": "0x21a8cf9e019f6ade8bdf731f41fddc83a6c6d6e94d5f2b5b7cf28af6ab930a84",
          "blockNumber": "0x20752a4",
          "blockTimestamp": "0x6899022b",
          "transactionHash": "0x2898235f23ec04676a68e779adc2a9b940cef9c79cc1b36d29a9bf2424ff2ef8",
          "transactionIndex": "0x3f",
          "logIndex": "0xe9",
          "removed": false
        }
      ],
      "logsBloom": "0x00000000000000000000000080000000000002000000000000000000000000000000000000000000000000000000000000000010000000000000000000000000000000001000000000000000000000000000001000000000000001000000000020000000000000000000000000000000000000100000000000000000000000000000000000000000000000000000000000000000000000000000000000000000000000000000000000000000000000000000000000000000000000000000000000000000000000000000000000000000000000000000000000000000000000000400000000000000000000000000000000000000000000000000000000000000",
      "type": "0x2",
      "transactionHash": "0x2898235f23ec04676a68e779adc2a9b940cef9c79cc1b36d29a9bf2424ff2ef8",
      "transactionIndex": "0x3f",
      "blockHash": "0x21a8cf9e019f6ade8bdf731f41fddc83a6c6d6e94d5f2b5b7cf28af6ab930a84",
      "blockNumber": "0x20752a4",
      "gasUsed": "0x6b39",
      "effectiveGasPrice": "0x49b082",
      "from": "0xc2d98bc812d41df994fa67601e576e4380c1739f",
      "to": "0x418737ec22f93e95dd1dde7860a718d3e3a4d886",
      "contractAddress": null,
      "l1BaseFeeScalar": "0x8dd",
      "l1BlobBaseFee": "0x1",
      "l1BlobBaseFeeScalar": "0x101c12",
      "l1Fee": "0x717069d0",
      "l1GasPrice": "0x1f3f3b62",
      "l1GasUsed": "0x640"
    }
  ],
  "libraries": [],
  "pending": [],
  "returns": {
    "0": {
      "internal_type": "contract AIBasedNFTFactory",
      "value": "0x418737EC22F93e95dD1dDE7860A718D3E3a4d886"
    }
  },
  "timestamp": 1754858026893,
  "chain": 8453,
  "commit": "ac9b14a"
}