{
  "transactions": [
    {
      "hash": "0x7783d7b4dfdbee0c7e99426437b89c1854584b4d829c4b5e72d2ecff29a15d5c",
      "transactionType": "CALL",
      "contractName": "LevelNFTCollection",
      "contractAddress": "0xb405fd1156f854df98a8b7fcf7c8d3cc2fdd3b10",
      "function": "setFactoryAddress(address)",
      "arguments": [
        "0x179Ed73435F83fBBC863f576948be1C92120539d"
      ],
      "transaction": {
        "from": "0xc2d98bc812d41df994fa67601e576e4380c1739f",
        "to": "0xb405fd1156f854df98a8b7fcf7c8d3cc2fdd3b10",
        "gas": "0xa2d9",
        "value": "0x0",
        "input": "0x83c17c55000000000000000000000000179ed73435f83fbbc863f576948be1c92120539d",
        "nonce": "0xc4",
        "chainId": "0x2105"
      },
      "additionalContracts": [],
      "isFixedGasLimit": false
    }
  ],
  "receipts": [
    {
      "status": "0x1",
      "cumulativeGasUsed": "0xe3537d",
      "logs": [
        {
          "address": "0xb405fd1156f854df98a8b7fcf7c8d3cc2fdd3b10",
          "topics": [
            "0x9d910c9fad7f6caea97ddebdae1c9588dcbeee40ac58fbea43811e3554b6d727",
            "0x000000000000000000000000179ed73435f83fbbc863f576948be1c92120539d"
          ],
          "data": "0x",
          "blockHash": "0x0a9315644e8bd83cbd2e4dfcee090c56928dc8b151dea9e0b665dfd185f1de12",
          "blockNumber": "0x20b20e5",
          "blockTimestamp": "0x68a09ead",
          "transactionHash": "0x7783d7b4dfdbee0c7e99426437b89c1854584b4d829c4b5e72d2ecff29a15d5c",
          "transactionIndex": "0x29",
          "logIndex": "0x154",
          "removed": false
        }
      ],
      "logsBloom": "0x00000000000000000000000000000000000000000000000000000000000000000000000000000000000000000000000000000000000000000000000000000000040080000000000010000000000000000000000000000000000000000000000000400000000000000000200000000020000000000000000000000000000000000000000000000000000000000000000000000000000000000000000000000000000000000000000000000000000000000000000000000000001000000000000000000000000000000001000000000000000000000000000000000000000000040000000000000000000000000000000000000000000000000000000000000000",
      "type": "0x2",
      "transactionHash": "0x7783d7b4dfdbee0c7e99426437b89c1854584b4d829c4b5e72d2ecff29a15d5c",
      "transactionIndex": "0x29",
      "blockHash": "0x0a9315644e8bd83cbd2e4dfcee090c56928dc8b151dea9e0b665dfd185f1de12",
      "blockNumber": "0x20b20e5",
      "gasUsed": "0x75e7",
      "effectiveGasPrice": "0x320b57",
      "from": "0xc2d98bc812d41df994fa67601e576e4380c1739f",
      "to": "0xb405fd1156f854df98a8b7fcf7c8d3cc2fdd3b10",
      "contractAddress": null,
      "l1BaseFeeScalar": "0x8dd",
      "l1BlobBaseFee": "0x1",
      "l1BlobBaseFeeScalar": "0x101c12",
      "l1Fee": "0x37d55f13",
      "l1GasPrice": "0xf612233",
      "l1GasUsed": "0x640"
    }
  ],
  "libraries": [],
  "pending": [],
  "returns": {},
  "timestamp": 1755356845216,
  "chain": 8453,
  "commit": "56ee7d3"
}