{
  "transactions": [
    {
      "hash": "0x3fc2e8e9cc59553569b372d227f2d9694b91de38dccb91ef4ec2eb5a905db798",
      "transactionType": "CALL",
      "contractName": null,
      "contractAddress": "0x5924f6258f534bb8794b549cef6c0d1872686a13",
      "function": "setBasePrice(uint256)",
      "arguments": [
        "1200000000000000"
      ],
      "transaction": {
        "from": "0xc2d98bc812d41df994fa67601e576e4380c1739f",
        "to": "0x5924f6258f534bb8794b549cef6c0d1872686a13",
        "gas": "0xa0fc",
        "value": "0x0",
        "input": "0xde4b326200000000000000000000000000000000000000000000000000044364c5bb0000",
        "nonce": "0xb5",
        "chainId": "0x2105"
      },
      "additionalContracts": [],
      "isFixedGasLimit": false
    }
  ],
  "receipts": [
    {
      "status": "0x1",
      "cumulativeGasUsed": "0xd8a8b5",
      "logs": [
        {
          "address": "0x5924f6258f534bb8794b549cef6c0d1872686a13",
          "topics": [
            "0xfab5bcbec79a8b5888e114fd4b378427aa58d9b237d85056f0ee5b3ea57df8c5",
            "0x00000000000000000000000000000000000000000000000000044364c5bb0000"
          ],
          "data": "0x",
          "blockHash": "0x8d67b37b4c4dc1bbb88ac958c4559f2eda74dda700adc45cbe88b73efeb68f15",
          "blockNumber": "0x2075cb7",
          "blockTimestamp": "0x68991651",
          "transactionHash": "0x3fc2e8e9cc59553569b372d227f2d9694b91de38dccb91ef4ec2eb5a905db798",
          "transactionIndex": "0xaa",
          "logIndex": "0xba",
          "removed": false
        }
      ],
      "logsBloom": "0x00000000000000000000000000000000000000000000000000000000000000000000000000000000000000000000000000000000000000000000000000000000000000000000000000000000000000000000000001000000000000000000000000000000000000000000000000000000000080000000000000000000000000000000000000000000000000000000000000000000000000000000000000000000010000000000000000200000000000000020000200000000000000000000000000000000000000000000000000000000001010100000000000000000000000000000000000000000000000000000000000000000000000000000000000000000",
      "type": "0x2",
      "transactionHash": "0x3fc2e8e9cc59553569b372d227f2d9694b91de38dccb91ef4ec2eb5a905db798",
      "transactionIndex": "0xaa",
      "blockHash": "0x8d67b37b4c4dc1bbb88ac958c4559f2eda74dda700adc45cbe88b73efeb68f15",
      "blockNumber": "0x2075cb7",
      "gasUsed": "0x748e",
      "effectiveGasPrice": "0xc1f68",
      "from": "0xc2d98bc812d41df994fa67601e576e4380c1739f",
      "to": "0x5924f6258f534bb8794b549cef6c0d1872686a13",
      "contractAddress": null,
      "l1BaseFeeScalar": "0x8dd",
      "l1BlobBaseFee": "0x1",
      "l1BlobBaseFeeScalar": "0x101c12",
      "l1Fee": "0x319ead14",
      "l1GasPrice": "0xdaaf94b",
      "l1GasUsed": "0x640"
    }
  ],
  "libraries": [],
  "pending": [],
  "returns": {},
  "timestamp": 1754863182533,
  "chain": 8453,
  "commit": "ac9b14a"
}