{
  "transactions": [
    {
      "hash": "0xc285f748218a49c7d4be3b3af224e0a07b16eb203057962b4bbedb2db9d06331",
      "transactionType": "CALL",
      "contractName": null,
      "contractAddress": "0xd3aaf6415f50efa4a7e4cee8482592d421a07631",
      "function": "setMerkleRoot(bytes32)",
      "arguments": [
        "0x39c4d4d71252897f5454b75c95f163ee208b12674e33ea271074f12e4756299e"
      ],
      "transaction": {
        "from": "0x865aecef8a981f2dc860ee1074119d8821518db3",
        "to": "0xd3aaf6415f50efa4a7e4cee8482592d421a07631",
        "gas": "0xa29f",
        "value": "0x0",
        "input": "0x7cb6475939c4d4d71252897f5454b75c95f163ee208b12674e33ea271074f12e4756299e",
        "nonce": "0x44",
        "chainId": "0x14a34"
      },
      "additionalContracts": [],
      "isFixedGasLimit": false
    }
  ],
  "receipts": [
    {
      "status": "0x1",
      "cumulativeGasUsed": "0x4c4b8f",
      "logs": [
        {
          "address": "0xd3aaf6415f50efa4a7e4cee8482592d421a07631",
          "topics": [
            "0x90004c04698bc3322499a575ed3752dd4abf33e0a7294c06a787a0fe01bea941",
            "0x39c4d4d71252897f5454b75c95f163ee208b12674e33ea271074f12e4756299e"
          ],
          "data": "0x",
          "blockHash": "0xcd2e3f3ee1809e7ae01dfe9b5029b74dc9e4d5e3df7c0da5dc1d129383f331a1",
          "blockNumber": "0x1b31362",
          "transactionHash": "0xc285f748218a49c7d4be3b3af224e0a07b16eb203057962b4bbedb2db9d06331",
          "transactionIndex": "0xf",
          "logIndex": "0xa4",
          "removed": false
        }
      ],
      "logsBloom": "0x00000000000000000000000000000000000000000000000000000000000000000000000000000000000000000000000000000080000000000000000000000000000000000000000000000000000000000000000000000000000000000000000000000000000000000000000000000000000000000000001000000000000000000000000000000000000000000000020000000000000000002000800400000000000000000000000000000000000000000000000000000000000000000000000000000000000000000000000000000000000000000000000000000000002000000000000000000010000000000000000000000000000000000200000000000000",
      "type": "0x2",
      "transactionHash": "0xc285f748218a49c7d4be3b3af224e0a07b16eb203057962b4bbedb2db9d06331",
      "transactionIndex": "0xf",
      "blockHash": "0xcd2e3f3ee1809e7ae01dfe9b5029b74dc9e4d5e3df7c0da5dc1d129383f331a1",
      "blockNumber": "0x1b31362",
      "gasUsed": "0x75bd",
      "effectiveGasPrice": "0x186d6",
      "from": "0x865aecef8a981f2dc860ee1074119d8821518db3",
      "to": "0xd3aaf6415f50efa4a7e4cee8482592d421a07631",
      "contractAddress": null,
      "l1BaseFeeScalar": "0x44d",
      "l1BlobBaseFee": "0x1",
      "l1BlobBaseFeeScalar": "0xa118b",
      "l1Fee": "0x58",
      "l1GasPrice": "0xd",
      "l1GasUsed": "0x640"
    }
  ],
  "libraries": [],
  "pending": [],
  "returns": {},
  "timestamp": 1752794533,
  "chain": 84532,
  "commit": "4fb5e54"
}