{
  "transactions": [
    {
      "hash": "0xe98dafefc3a1326beebe197ac36067514849736b2aba67325764a4a159395b83",
      "transactionType": "CALL",
      "contractName": null,
      "contractAddress": "0xa7231cd5b221ef74079c5c4260339d6e5d16d8ae",
      "function": "setMerkleRoot(bytes32)",
      "arguments": [
        "0x75aec2732a328df0dc1706948b6223747531844a12f450a2c6d32675adcf5039"
      ],
      "transaction": {
        "from": "0x865aecef8a981f2dc860ee1074119d8821518db3",
        "to": "0xa7231cd5b221ef74079c5c4260339d6e5d16d8ae",
        "gas": "0x9383",
        "value": "0x0",
        "input": "0x7cb6475975aec2732a328df0dc1706948b6223747531844a12f450a2c6d32675adcf5039",
        "nonce": "0x61",
        "chainId": "0x14a34"
      },
      "additionalContracts": [],
      "isFixedGasLimit": false
    }
  ],
  "receipts": [
    {
      "status": "0x1",
      "cumulativeGasUsed": "0x9fd0d",
      "logs": [
        {
          "address": "0xa7231cd5b221ef74079c5c4260339d6e5d16d8ae",
          "topics": [
            "0x90004c04698bc3322499a575ed3752dd4abf33e0a7294c06a787a0fe01bea941",
            "0x75aec2732a328df0dc1706948b6223747531844a12f450a2c6d32675adcf5039"
          ],
          "data": "0x",
          "blockHash": "0x65b7a51fc3083dcd50fde2f8e9c3176edd66876052ef55f01a911a857d293bd7",
          "blockNumber": "0x1bc9e07",
          "blockTimestamp": "0x688c9aee",
          "transactionHash": "0xe98dafefc3a1326beebe197ac36067514849736b2aba67325764a4a159395b83",
          "transactionIndex": "0x5",
          "logIndex": "0x5",
          "removed": false
        }
      ],
      "logsBloom": "0x00000000000000000000000000000000000000000000000000000000000000000000000000000000000000000000000000000080000000000000000000000000000000000000000000000000000000000000000000000000000000000000000000000000000000000000000000000000000000000000000000000000000000000000000000000000001000000000000000000000000000000000800080000000000000000000000200000000000000100000000000000000000000000000000008000000000000000000000000000200000000000000000000000000000000000000000000000000000000000000000000000000000000000200000000000000",
      "type": "0x2",
      "transactionHash": "0xe98dafefc3a1326beebe197ac36067514849736b2aba67325764a4a159395b83",
      "transactionIndex": "0x5",
      "blockHash": "0x65b7a51fc3083dcd50fde2f8e9c3176edd66876052ef55f01a911a857d293bd7",
      "blockNumber": "0x1bc9e07",
      "gasUsed": "0x6acd",
      "effectiveGasPrice": "0xf427c",
      "from": "0x865aecef8a981f2dc860ee1074119d8821518db3",
      "to": "0xa7231cd5b221ef74079c5c4260339d6e5d16d8ae",
      "contractAddress": null,
      "l1BaseFeeScalar": "0x44d",
      "l1BlobBaseFee": "0x1",
      "l1BlobBaseFeeScalar": "0xa118b",
      "l1Fee": "0x61d976b7",
      "l1GasPrice": "0x378bb8e6",
      "l1GasUsed": "0x640"
    }
  ],
  "libraries": [],
  "pending": [],
  "returns": {},
  "timestamp": 1754045163963,
  "chain": 84532,
  "commit": "1998ff9"
}