{
  "transactions": [
    {
      "hash": "0x2b96905fceb68a550ce6ad7b0bbfe18927e31fc0f68eed69ec31abe1f61d11db",
      "transactionType": "CALL",
      "contractName": null,
      "contractAddress": "0xd3aaf6415f50efa4a7e4cee8482592d421a07631",
      "function": "setMerkleRoot(bytes32)",
      "arguments": [
        "0xc45e9913df791591fc485a9877ed2d61b9491e79eb492f37316b87b61174c5e4"
      ],
      "transaction": {
        "from": "0x865aecef8a981f2dc860ee1074119d8821518db3",
        "to": "0xd3aaf6415f50efa4a7e4cee8482592d421a07631",
        "gas": "0xa29f",
        "value": "0x0",
        "input": "0x7cb64759c45e9913df791591fc485a9877ed2d61b9491e79eb492f37316b87b61174c5e4",
        "nonce": "0x46",
        "chainId": "0x14a34"
      },
      "additionalContracts": [],
      "isFixedGasLimit": false
    }
  ],
  "receipts": [
    {
      "status": "0x1",
      "cumulativeGasUsed": "0x20268b",
      "logs": [
        {
          "address": "0xd3aaf6415f50efa4a7e4cee8482592d421a07631",
          "topics": [
            "0x90004c04698bc3322499a575ed3752dd4abf33e0a7294c06a787a0fe01bea941",
            "0xc45e9913df791591fc485a9877ed2d61b9491e79eb492f37316b87b61174c5e4"
          ],
          "data": "0x",
          "blockHash": "0x3523777b8f166faff2cce84bef710eef1ebf66e0fe4dfc6301c77db6e4b955cf",
          "blockNumber": "0x1b499b1",
          "transactionHash": "0x2b96905fceb68a550ce6ad7b0bbfe18927e31fc0f68eed69ec31abe1f61d11db",
          "transactionIndex": "0x12",
          "logIndex": "0x3e",
          "removed": false
        }
      ],
      "logsBloom": "0x00000000800000000000000000000000000000000000000000000000000010000000000000000000000000000000000000000080000000000000000000000000000000000000000000000000000000000000000000000000000000000000000000000000000000000000000000000000000000000000001000000000000000000400000000000000000000000000020000000000000000002000800000000000000000000000000000000000000000000000000000000000000000000000000000000000000000000000000000000000000000000000000000000000000000000000000000000000000000000000000000000000000000000200000000000000",
      "type": "0x2",
      "transactionHash": "0x2b96905fceb68a550ce6ad7b0bbfe18927e31fc0f68eed69ec31abe1f61d11db",
      "transactionIndex": "0x12",
      "blockHash": "0x3523777b8f166faff2cce84bef710eef1ebf66e0fe4dfc6301c77db6e4b955cf",
      "blockNumber": "0x1b499b1",
      "gasUsed": "0x75bd",
      "effectiveGasPrice": "0xf86ed",
      "from": "0x865aecef8a981f2dc860ee1074119d8821518db3",
      "to": "0xd3aaf6415f50efa4a7e4cee8482592d421a07631",
      "contractAddress": null,
      "l1BaseFeeScalar": "0x44d",
      "l1BlobBaseFee": "0x1",
      "l1BlobBaseFeeScalar": "0xa118b",
      "l1Fee": "0x162",
      "l1GasPrice": "0xa4",
      "l1GasUsed": "0x640"
    }
  ],
  "libraries": [],
  "pending": [],
  "returns": {},
  "timestamp": 1752994370,
  "chain": 84532,
  "commit": "018d9d4"
}